{
  "contractName": "BoxingBets",
  "abi": [
    {
      "inputs": [],
      "name": "getBettableMatches",
      "outputs": [
        {
          "internalType": "bytes32[]",
          "name": "",
          "type": "bytes32[]"
        }
      ],
      "stateMutability": "view",
      "type": "function"
    },
    {
      "inputs": [
        {
          "internalType": "bytes32",
          "name": "_matchId",
          "type": "bytes32"
        }
      ],
      "name": "getMatch",
      "outputs": [
        {
          "internalType": "bytes32",
          "name": "id",
          "type": "bytes32"
        },
        {
          "internalType": "string",
          "name": "name",
          "type": "string"
        },
        {
          "internalType": "string",
          "name": "participants",
          "type": "string"
        },
        {
          "internalType": "uint8",
          "name": "participantCount",
          "type": "uint8"
        },
        {
          "internalType": "uint256",
          "name": "date",
          "type": "uint256"
        },
        {
          "internalType": "enum OracleInterface.MatchOutcome",
          "name": "outcome",
          "type": "uint8"
        },
        {
          "internalType": "int8",
          "name": "winner",
          "type": "int8"
        }
      ],
      "stateMutability": "view",
      "type": "function"
    },
    {
      "inputs": [],
      "name": "getMostRecentMatch",
      "outputs": [
        {
          "internalType": "bytes32",
          "name": "id",
          "type": "bytes32"
        },
        {
          "internalType": "string",
          "name": "name",
          "type": "string"
        },
        {
          "internalType": "string",
          "name": "participants",
          "type": "string"
        },
        {
          "internalType": "uint256",
          "name": "participantCount",
          "type": "uint256"
        },
        {
          "internalType": "uint256",
          "name": "date",
          "type": "uint256"
        },
        {
          "internalType": "enum OracleInterface.MatchOutcome",
          "name": "outcome",
          "type": "uint8"
        },
        {
          "internalType": "int8",
          "name": "winner",
          "type": "int8"
        }
      ],
      "stateMutability": "view",
      "type": "function"
    },
    {
      "inputs": [
        {
          "internalType": "bytes32",
          "name": "_matchId",
          "type": "bytes32"
        },
        {
          "internalType": "uint8",
          "name": "_chosenWinner",
          "type": "uint8"
        }
      ],
      "name": "placeBet",
      "outputs": [],
      "stateMutability": "payable",
      "type": "function"
    },
    {
      "inputs": [
        {
          "internalType": "uint256",
          "name": "a",
          "type": "uint256"
        },
        {
          "internalType": "uint256",
          "name": "b",
          "type": "uint256"
        }
      ],
      "name": "test",
      "outputs": [
        {
          "internalType": "uint256",
          "name": "",
          "type": "uint256"
        }
      ],
      "stateMutability": "pure",
      "type": "function"
    }
  ],
  "bytecode": "0x608060405260405161001090610088565b604051809103906000f08015801561002c573d6000803e3d6000fd5b50600260006101000a81548173ffffffffffffffffffffffffffffffffffffffff021916908373ffffffffffffffffffffffffffffffffffffffff16021790555064e8d4a5100060035534801561008257600080fd5b50610095565b610e6b806112e683390190565b611242806100a46000396000f3fe60806040526004361061004a5760003560e01c80630e52bb491461004f5780633397741b1461006b578063ced1b70814610096578063eb8ac921146100c7578063fcc6077d14610104575b600080fd5b61006960048036038101906100649190610a14565b610147565b005b34801561007757600080fd5b50610080610471565b60405161008d9190610c30565b60405180910390f35b3480156100a257600080fd5b506100ab61051d565b6040516100be9796959493929190610c88565b60405180910390f35b3480156100d357600080fd5b506100ee60048036038101906100e99190610a50565b6105f6565b6040516100fb9190610e02565b60405180910390f35b34801561011057600080fd5b5061012b6004803603810190610126919061091d565b61060c565b60405161013e9796959493929190610d05565b60405180910390f35b60035434101561018c576040517f08c379a000000000000000000000000000000000000000000000000000000000815260040161018390610de2565b60405180910390fd5b600260009054906101000a900473ffffffffffffffffffffffffffffffffffffffff1673ffffffffffffffffffffffffffffffffffffffff1663a9345240836040518263ffffffff1660e01b81526004016101e79190610c6d565b60206040518083038186803b1580156101ff57600080fd5b505afa158015610213573d6000803e3d6000fd5b505050506040513d601f19601f8201168201806040525081019061023791906108f4565b610276576040517f08c379a000000000000000000000000000000000000000000000000000000000815260040161026d90610da2565b60405180910390fd5b6102813383836106e0565b6102c0576040517f08c379a00000000000000000000000000000000000000000000000000000000081526004016102b790610dc2565b60405180910390fd5b6102c9826106ed565b610308576040517f08c379a00000000000000000000000000000000000000000000000000000000081526004016102ff90610d82565b60405180910390fd5b60006001600084815260200190815260200160002090508060405180608001604052803373ffffffffffffffffffffffffffffffffffffffff1681526020018581526020013481526020018460ff16815250908060018154018082558091505060019003906000526020600020906004020160009091909190915060008201518160000160006101000a81548173ffffffffffffffffffffffffffffffffffffffff021916908373ffffffffffffffffffffffffffffffffffffffff160217905550602082015181600101556040820151816002015560608201518160030160006101000a81548160ff021916908360ff160217905550505060008060003373ffffffffffffffffffffffffffffffffffffffff1673ffffffffffffffffffffffffffffffffffffffff16815260200190815260200160002090508084908060018154018082558091505060019003906000526020600020016000909190919091505550505050565b6060600260009054906101000a900473ffffffffffffffffffffffffffffffffffffffff1673ffffffffffffffffffffffffffffffffffffffff16635f29d4b16040518163ffffffff1660e01b815260040160006040518083038186803b1580156104db57600080fd5b505afa1580156104ef573d6000803e3d6000fd5b505050506040513d6000823e3d601f19601f8201168201806040525081019061051891906108b3565b905090565b6000606080600080600080600260009054906101000a900473ffffffffffffffffffffffffffffffffffffffff1673ffffffffffffffffffffffffffffffffffffffff1663bb2b0f5860016040518263ffffffff1660e01b81526004016105849190610c52565b60006040518083038186803b15801561059c57600080fd5b505afa1580156105b0573d6000803e3d6000fd5b505050506040513d6000823e3d601f19601f820116820180604052508101906105d99190610946565b8360ff169350965096509650965096509650965090919293949596565b600081836106049190610ef4565b905092915050565b6000606080600080600080600260009054906101000a900473ffffffffffffffffffffffffffffffffffffffff1673ffffffffffffffffffffffffffffffffffffffff1663fcc6077d896040518263ffffffff1660e01b81526004016106729190610c6d565b60006040518083038186803b15801561068a57600080fd5b505afa15801561069e573d6000803e3d6000fd5b505050506040513d6000823e3d601f19601f820116820180604052508101906106c79190610946565b9650965096509650965096509650919395979092949650565b6000600190509392505050565b600060019050919050565b600061070b61070684610e42565b610e1d565b9050808382526020820190508285602086028201111561072a57600080fd5b60005b8581101561075a578161074088826107f6565b84526020840193506020830192505060018101905061072d565b5050509392505050565b600061077761077284610e6e565b610e1d565b90508281526020810184848401111561078f57600080fd5b61079a848285610fa9565b509392505050565b600082601f8301126107b357600080fd5b81516107c38482602086016106f8565b91505092915050565b6000815190506107db81611189565b92915050565b6000813590506107f0816111a0565b92915050565b600081519050610805816111a0565b92915050565b60008151905061081a816111b7565b92915050565b60008151905061082f816111c7565b92915050565b600082601f83011261084657600080fd5b8151610856848260208601610764565b91505092915050565b60008135905061086e816111de565b92915050565b600081519050610883816111de565b92915050565b600081359050610898816111f5565b92915050565b6000815190506108ad816111f5565b92915050565b6000602082840312156108c557600080fd5b600082015167ffffffffffffffff8111156108df57600080fd5b6108eb848285016107a2565b91505092915050565b60006020828403121561090657600080fd5b6000610914848285016107cc565b91505092915050565b60006020828403121561092f57600080fd5b600061093d848285016107e1565b91505092915050565b600080600080600080600060e0888a03121561096157600080fd5b600061096f8a828b016107f6565b975050602088015167ffffffffffffffff81111561098c57600080fd5b6109988a828b01610835565b965050604088015167ffffffffffffffff8111156109b557600080fd5b6109c18a828b01610835565b95505060606109d28a828b0161089e565b94505060806109e38a828b01610874565b93505060a06109f48a828b0161080b565b92505060c0610a058a828b01610820565b91505092959891949750929550565b60008060408385031215610a2757600080fd5b6000610a35858286016107e1565b9250506020610a4685828601610889565b9150509250929050565b60008060408385031215610a6357600080fd5b6000610a718582860161085f565b9250506020610a828582860161085f565b9150509250929050565b6000610a988383610b11565b60208301905092915050565b6000610aaf82610eaf565b610ab98185610ed2565b9350610ac483610e9f565b8060005b83811015610af5578151610adc8882610a8c565b9750610ae783610ec5565b925050600181019050610ac8565b5085935050505092915050565b610b0b81610f4a565b82525050565b610b1a81610f56565b82525050565b610b2981610f56565b82525050565b610b3881610f97565b82525050565b610b4781610f73565b82525050565b6000610b5882610eba565b610b628185610ee3565b9350610b72818560208601610fa9565b610b7b8161109a565b840191505092915050565b6000610b93601a83610ee3565b9150610b9e826110ab565b602082019050919050565b6000610bb6601983610ee3565b9150610bc1826110d4565b602082019050919050565b6000610bd9601083610ee3565b9150610be4826110fd565b602082019050919050565b6000610bfc602183610ee3565b9150610c0782611126565b604082019050919050565b610c1b81610f80565b82525050565b610c2a81610f8a565b82525050565b60006020820190508181036000830152610c4a8184610aa4565b905092915050565b6000602082019050610c676000830184610b02565b92915050565b6000602082019050610c826000830184610b20565b92915050565b600060e082019050610c9d600083018a610b20565b8181036020830152610caf8189610b4d565b90508181036040830152610cc38188610b4d565b9050610cd26060830187610c12565b610cdf6080830186610c12565b610cec60a0830185610b2f565b610cf960c0830184610b3e565b98975050505050505050565b600060e082019050610d1a600083018a610b20565b8181036020830152610d2c8189610b4d565b90508181036040830152610d408188610b4d565b9050610d4f6060830187610c21565b610d5c6080830186610c12565b610d6960a0830185610b2f565b610d7660c0830184610b3e565b98975050505050505050565b60006020820190508181036000830152610d9b81610b86565b9050919050565b60006020820190508181036000830152610dbb81610ba9565b9050919050565b60006020820190508181036000830152610ddb81610bcc565b9050919050565b60006020820190508181036000830152610dfb81610bef565b9050919050565b6000602082019050610e176000830184610c12565b92915050565b6000610e27610e38565b9050610e338282610fdc565b919050565b6000604051905090565b600067ffffffffffffffff821115610e5d57610e5c61106b565b5b602082029050602081019050919050565b600067ffffffffffffffff821115610e8957610e8861106b565b5b610e928261109a565b9050602081019050919050565b6000819050602082019050919050565b600081519050919050565b600081519050919050565b6000602082019050919050565b600082825260208201905092915050565b600082825260208201905092915050565b6000610eff82610f80565b9150610f0a83610f80565b9250827fffffffffffffffffffffffffffffffffffffffffffffffffffffffffffffffff03821115610f3f57610f3e61100d565b5b828201905092915050565b60008115159050919050565b6000819050919050565b6000819050610f6e82611175565b919050565b60008160000b9050919050565b6000819050919050565b600060ff82169050919050565b6000610fa282610f60565b9050919050565b60005b83811015610fc7578082015181840152602081019050610fac565b83811115610fd6576000848401525b50505050565b610fe58261109a565b810181811067ffffffffffffffff821117156110045761100361106b565b5b80604052505050565b7f4e487b7100000000000000000000000000000000000000000000000000000000600052601160045260246000fd5b7f4e487b7100000000000000000000000000000000000000000000000000000000600052602160045260246000fd5b7f4e487b7100000000000000000000000000000000000000000000000000000000600052604160045260246000fd5b6000601f19601f8301169050919050565b7f4d61746368206e6f74206f70656e20666f722062657474696e67000000000000600082015250565b7f537065636966696564206d61746368206e6f7420666f756e6400000000000000600082015250565b7f426574206973206e6f742076616c696400000000000000000000000000000000600082015250565b7f42657420616d6f756e74206d757374206265203e3d206d696e696d756d20626560008201527f7400000000000000000000000000000000000000000000000000000000000000602082015250565b600481106111865761118561103c565b5b50565b61119281610f4a565b811461119d57600080fd5b50565b6111a981610f56565b81146111b457600080fd5b50565b600481106111c457600080fd5b50565b6111d081610f73565b81146111db57600080fd5b50565b6111e781610f80565b81146111f257600080fd5b50565b6111fe81610f8a565b811461120957600080fd5b5056fea2646970667358221220fc303f4b7a5345e11886b75c4ba0de0e7b7d8491029ad03ec8a38a6ea1dbc00164736f6c63430008040033608060405234801561001057600080fd5b50610e4b806100206000396000f3fe608060405234801561001057600080fd5b50600436106100575760003560e01c80635f29d4b11461005c578063a93452401461007a578063bb2b0f58146100aa578063c17c5a45146100e0578063fcc6077d146100fe575b600080fd5b610064610134565b6040516100719190610abb565b60405180910390f35b610094600480360381019061008f919061097a565b61046f565b6040516100a19190610add565b60405180910390f35b6100c460048036038101906100bf9190610951565b6104ab565b6040516100d79796959493929190610af8565b60405180910390f35b6100e8610553565b6040516100f59190610abb565b60405180910390f35b6101186004803603810190610113919061097a565b6106b5565b60405161012b9796959493929190610af8565b60405180910390f35b60606000805b60018054905081101561023a5760006003811115610181577f4e487b7100000000000000000000000000000000000000000000000000000000600052602160045260246000fd5b600182815481106101bb577f4e487b7100000000000000000000000000000000000000000000000000000000600052603260045260246000fd5b906000526020600020906006020160050160009054906101000a900460ff166003811115610212577f4e487b7100000000000000000000000000000000000000000000000000000000600052602160045260246000fd5b141561022757818061022390610cec565b9250505b808061023290610cec565b91505061013a565b5060008167ffffffffffffffff81111561027d577f4e487b7100000000000000000000000000000000000000000000000000000000600052604160045260246000fd5b6040519080825280602002602001820160405280156102ab5781602001602082028036833780820191505090505b50905060008211156104675760008060018054905090505b60008111156104645760006003811115610306577f4e487b7100000000000000000000000000000000000000000000000000000000600052602160045260246000fd5b600180836103149190610bca565b8154811061034b577f4e487b7100000000000000000000000000000000000000000000000000000000600052603260045260246000fd5b906000526020600020906006020160050160009054906101000a900460ff1660038111156103a2577f4e487b7100000000000000000000000000000000000000000000000000000000600052602160045260246000fd5b141561045157600180826103b69190610bca565b815481106103ed577f4e487b7100000000000000000000000000000000000000000000000000000000600052603260045260246000fd5b90600052602060002090600602016000015483838061040b90610cec565b945081518110610444577f4e487b7100000000000000000000000000000000000000000000000000000000600052603260045260246000fd5b6020026020010181815250505b808061045c90610c90565b9150506102c3565b50505b809250505090565b600080600180549050141561048757600090506104a6565b6000806000848152602001908152602001600020549050600081119150505b919050565b600060608060008060008060008060001b9050606089156104d5576104ce610134565b90506104e0565b6104dd610553565b90505b60008151111561052f5780600081518110610524577f4e487b7100000000000000000000000000000000000000000000000000000000600052603260045260246000fd5b602002602001015191505b610538826106b5565b98509850985098509850985098505050919395979092949650565b6060600060018054905067ffffffffffffffff81111561059c577f4e487b7100000000000000000000000000000000000000000000000000000000600052604160045260246000fd5b6040519080825280602002602001820160405280156105ca5781602001602082028036833780820191505090505b509050600060018054905011156106ae5760008060018054905090505b60008111156106ab57600180826105fe9190610bca565b81548110610635577f4e487b7100000000000000000000000000000000000000000000000000000000600052603260045260246000fd5b90600052602060002090600602016000015483838061065390610cec565b94508151811061068c577f4e487b7100000000000000000000000000000000000000000000000000000000600052603260045260246000fd5b60200260200101818152505080806106a390610c90565b9150506105e7565b50505b8091505090565b60006060806000806000806106c98861046f565b1561089657600060016106db8a6108ff565b81548110610712577f4e487b7100000000000000000000000000000000000000000000000000000000600052603260045260246000fd5b90600052602060002090600602019050806000015481600101826002018360030160009054906101000a900460ff1684600401548560050160009054906101000a900460ff168660050160019054906101000a900460000b85805461077690610cba565b80601f01602080910402602001604051908101604052809291908181526020018280546107a290610cba565b80156107ef5780601f106107c4576101008083540402835291602001916107ef565b820191906000526020600020905b8154815290600101906020018083116107d257829003601f168201915b5050505050955084805461080290610cba565b80601f016020809104026020016040519081016040528092919081815260200182805461082e90610cba565b801561087b5780601f106108505761010080835404028352916020019161087b565b820191906000526020600020905b81548152906001019060200180831161085e57829003601f168201915b505050505094509750975097509750975097509750506108f4565b8760008060007fffffffffffffffffffffffffffffffffffffffffffffffffffffffffffffffff6040518060200160405280600081525093929190604051806020016040528060008152509392919096509650965096509650965096505b919395979092949650565b60006001600080848152602001908152602001600020546109209190610bca565b9050919050565b60008135905061093681610de7565b92915050565b60008135905061094b81610dfe565b92915050565b60006020828403121561096357600080fd5b600061097184828501610927565b91505092915050565b60006020828403121561098c57600080fd5b600061099a8482850161093c565b91505092915050565b60006109af8383610a28565b60208301905092915050565b60006109c682610b85565b6109d08185610ba8565b93506109db83610b75565b8060005b83811015610a0c5781516109f388826109a3565b97506109fe83610b9b565b9250506001810190506109df565b5085935050505092915050565b610a2281610bfe565b82525050565b610a3181610c0a565b82525050565b610a4081610c0a565b82525050565b610a4f81610c4b565b82525050565b610a5e81610c27565b82525050565b6000610a6f82610b90565b610a798185610bb9565b9350610a89818560208601610c5d565b610a9281610dc2565b840191505092915050565b610aa681610c34565b82525050565b610ab581610c3e565b82525050565b60006020820190508181036000830152610ad581846109bb565b905092915050565b6000602082019050610af26000830184610a19565b92915050565b600060e082019050610b0d600083018a610a37565b8181036020830152610b1f8189610a64565b90508181036040830152610b338188610a64565b9050610b426060830187610aac565b610b4f6080830186610a9d565b610b5c60a0830185610a46565b610b6960c0830184610a55565b98975050505050505050565b6000819050602082019050919050565b600081519050919050565b600081519050919050565b6000602082019050919050565b600082825260208201905092915050565b600082825260208201905092915050565b6000610bd582610c34565b9150610be083610c34565b925082821015610bf357610bf2610d35565b5b828203905092915050565b60008115159050919050565b6000819050919050565b6000819050610c2282610dd3565b919050565b60008160000b9050919050565b6000819050919050565b600060ff82169050919050565b6000610c5682610c14565b9050919050565b60005b83811015610c7b578082015181840152602081019050610c60565b83811115610c8a576000848401525b50505050565b6000610c9b82610c34565b91506000821415610caf57610cae610d35565b5b600182039050919050565b60006002820490506001821680610cd257607f821691505b60208210811415610ce657610ce5610d93565b5b50919050565b6000610cf782610c34565b91507fffffffffffffffffffffffffffffffffffffffffffffffffffffffffffffffff821415610d2a57610d29610d35565b5b600182019050919050565b7f4e487b7100000000000000000000000000000000000000000000000000000000600052601160045260246000fd5b7f4e487b7100000000000000000000000000000000000000000000000000000000600052602160045260246000fd5b7f4e487b7100000000000000000000000000000000000000000000000000000000600052602260045260246000fd5b6000601f19601f8301169050919050565b60048110610de457610de3610d64565b5b50565b610df081610bfe565b8114610dfb57600080fd5b50565b610e0781610c0a565b8114610e1257600080fd5b5056fea2646970667358221220668f17c3ec14f4eac605faa10631bada433b8244d8e97fe4834a1d8f942c906364736f6c63430008040033",
  "immutableReferences": {},
  "source": "pragma solidity ^0.8.4;\r\n\r\nimport \"./OracleInterface.sol\";\r\n\r\n/// @title BoxingBets\r\n/// @author John R. Kosinski\r\n/// @notice Takes bets and handles payouts for boxing matches\r\ncontract BoxingBets {\r\n    //mappings\r\n    mapping(address => bytes32[]) private userToBets;\r\n    mapping(bytes32 => Bet[]) private matchToBets;\r\n\r\n    //boxing results oracle\r\n    OracleInterface internal boxingOracle = new OracleInterface();\r\n\r\n    //constants\r\n    uint internal minimumBet = 1000000000000;\r\n\r\n    struct Bet {\r\n        address user;\r\n        bytes32 matchId;\r\n        uint amount;\r\n        uint8 chosenWinner;\r\n    }\r\n\r\n    enum BettableOutcome {\r\n        Fighter1,\r\n        Fighter2\r\n    }\r\n\r\n    /// @notice determines whether or not the user has already bet on the given match\r\n    /// @param _user address of a user\r\n    /// @param _matchId id of a match\r\n    /// @param _chosenWinner the index of the participant to bet on (to win)\r\n    /// @return true if the given user has already placed a bet on the given match\r\n    function _betIsValid(\r\n        address _user,\r\n        bytes32 _matchId,\r\n        uint8 _chosenWinner\r\n    ) private view returns (bool) {\r\n        return true;\r\n    }\r\n\r\n    /// @notice determines whether or not bets may still be accepted for the given match\r\n    /// @param _matchId id of a match\r\n    /// @return true if the match is bettable\r\n    function _matchOpenForBetting(\r\n        bytes32 _matchId\r\n    ) private view returns (bool) {\r\n        return true;\r\n    }\r\n\r\n    /// @notice gets a list ids of all currently bettable matches\r\n    /// @return array of match ids\r\n    function getBettableMatches() public view returns (bytes32[] memory) {\r\n        return boxingOracle.getPendingMatches();\r\n    }\r\n\r\n    /// @notice returns the full data of the specified match\r\n    /// @param _matchId the id of the desired match\r\n    /// @return id\r\n    function getMatch(\r\n        bytes32 _matchId\r\n    )\r\n        public\r\n        view\r\n        returns (\r\n            bytes32 id,\r\n            string memory name,\r\n            string memory participants,\r\n            uint8 participantCount,\r\n            uint date,\r\n            OracleInterface.MatchOutcome outcome,\r\n            int8 winner\r\n        )\r\n    {\r\n        return boxingOracle.getMatch(_matchId);\r\n    }\r\n\r\n    /// @notice returns the full data of the most recent bettable match\r\n    /// @return id\r\n    function getMostRecentMatch()\r\n        public\r\n        view\r\n        returns (\r\n            bytes32 id,\r\n            string memory name,\r\n            string memory participants,\r\n            uint participantCount,\r\n            uint date,\r\n            OracleInterface.MatchOutcome outcome,\r\n            int8 winner\r\n        )\r\n    {\r\n        return boxingOracle.getMostRecentMatch(true);\r\n    }\r\n\r\n    /// @notice Places a non-rescindable bet on the given match\r\n    /// @param _matchId The ID of the match on which to bet\r\n    /// @param _chosenWinner The index of the participant chosen as the winner\r\n    function placeBet(bytes32 _matchId, uint8 _chosenWinner) public payable {\r\n        // Bet must be above a certain minimum\r\n        require(msg.value >= minimumBet, \"Bet amount must be >= minimum bet\");\r\n\r\n        // Make sure that match exists\r\n        require(\r\n            boxingOracle.matchExists(_matchId),\r\n            \"Specified match not found\"\r\n        );\r\n\r\n        // Require that chosen winner falls within the defined number of participants for the match\r\n        require(\r\n            _betIsValid(msg.sender, _matchId, _chosenWinner),\r\n            \"Bet is not valid\"\r\n        );\r\n\r\n        // Match must still be open for betting\r\n        require(_matchOpenForBetting(_matchId), \"Match not open for betting\");\r\n\r\n        // Transfer the money into the contract account\r\n        // (Note: it's generally safer to use transfer() instead of send() to prevent reentrancy attacks)\r\n        //address(this).transfer(msg.value);\r\n\r\n        // Add the new bet\r\n        Bet[] storage bets = matchToBets[_matchId];\r\n        bets.push(Bet(msg.sender, _matchId, msg.value, _chosenWinner));\r\n\r\n        // Add the mapping\r\n        bytes32[] storage userBets = userToBets[msg.sender];\r\n        userBets.push(_matchId);\r\n    }\r\n\r\n    /// @notice for testing only; adds two numbers and returns result\r\n    /// @return uint sum of two uints\r\n    function test(uint a, uint b) public pure returns (uint) {\r\n        return (a + b);\r\n    }\r\n}\r\n",
  "sourcePath": "C:\\Users\\USER\\oracle-example\\client\\contracts\\BoxingBets.sol",
  "compiler": {
    "name": "solc",
    "version": "0.8.4+commit.c7e474f2.Emscripten.clang"
  },
  "schemaVersion": "3.4.13",
  "updatedAt": "2023-04-27T05:26:41.810Z",
  "devdoc": {
    "author": "John R. Kosinski",
    "kind": "dev",
    "methods": {
      "getBettableMatches()": {
        "returns": {
          "_0": "array of match ids"
        }
      },
      "getMatch(bytes32)": {
        "params": {
          "_matchId": "the id of the desired match"
        },
        "returns": {
          "id": "id"
        }
      },
      "getMostRecentMatch()": {
        "returns": {
          "id": "id"
        }
      },
      "placeBet(bytes32,uint8)": {
        "params": {
          "_chosenWinner": "The index of the participant chosen as the winner",
          "_matchId": "The ID of the match on which to bet"
        }
      },
      "test(uint256,uint256)": {
        "returns": {
          "_0": "uint sum of two uints"
        }
      }
    },
    "title": "BoxingBets",
    "version": 1
  },
  "userdoc": {
    "kind": "user",
    "methods": {
      "getBettableMatches()": {
        "notice": "gets a list ids of all currently bettable matches"
      },
      "getMatch(bytes32)": {
        "notice": "returns the full data of the specified match"
      },
      "getMostRecentMatch()": {
        "notice": "returns the full data of the most recent bettable match"
      },
      "placeBet(bytes32,uint8)": {
        "notice": "Places a non-rescindable bet on the given match"
      },
      "test(uint256,uint256)": {
        "notice": "for testing only; adds two numbers and returns result"
      }
    },
    "notice": "Takes bets and handles payouts for boxing matches",
    "version": 1
  }
}