{
  "contractName": "BoxingBets",
  "abi": [
    {
      "constant": true,
      "inputs": [],
      "name": "getBettableMatches",
      "outputs": [
        {
          "name": "",
          "type": "bytes32[]"
        }
      ],
      "payable": false,
      "stateMutability": "view",
      "type": "function"
    },
    {
      "constant": true,
      "inputs": [
        {
          "name": "_matchId",
          "type": "bytes32"
        }
      ],
      "name": "getMatch",
      "outputs": [
        {
          "name": "id",
          "type": "bytes32"
        },
        {
          "name": "name",
          "type": "string"
        },
        {
          "name": "participants",
          "type": "string"
        },
        {
          "name": "participantCount",
          "type": "uint8"
        },
        {
          "name": "date",
          "type": "uint256"
        },
        {
          "name": "outcome",
          "type": "uint8"
        },
        {
          "name": "winner",
          "type": "int8"
        }
      ],
      "payable": false,
      "stateMutability": "view",
      "type": "function"
    },
    {
      "constant": true,
      "inputs": [],
      "name": "getMostRecentMatch",
      "outputs": [
        {
          "name": "id",
          "type": "bytes32"
        },
        {
          "name": "name",
          "type": "string"
        },
        {
          "name": "participants",
          "type": "string"
        },
        {
          "name": "participantCount",
          "type": "uint256"
        },
        {
          "name": "date",
          "type": "uint256"
        },
        {
          "name": "outcome",
          "type": "uint8"
        },
        {
          "name": "winner",
          "type": "int8"
        }
      ],
      "payable": false,
      "stateMutability": "view",
      "type": "function"
    },
    {
      "constant": false,
      "inputs": [
        {
          "name": "_matchId",
          "type": "bytes32"
        },
        {
          "name": "_chosenWinner",
          "type": "uint8"
        }
      ],
      "name": "placeBet",
      "outputs": [],
      "payable": true,
      "stateMutability": "payable",
      "type": "function"
    },
    {
      "constant": true,
      "inputs": [
        {
          "name": "a",
          "type": "uint256"
        },
        {
          "name": "b",
          "type": "uint256"
        }
      ],
      "name": "test",
      "outputs": [
        {
          "name": "",
          "type": "uint256"
        }
      ],
      "payable": false,
      "stateMutability": "pure",
      "type": "function"
    }
  ],
  "bytecode": "0x608060405261000c610084565b604051809103906000f080158015610028573d6000803e3d6000fd5b50600260006101000a81548173ffffffffffffffffffffffffffffffffffffffff021916908373ffffffffffffffffffffffffffffffffffffffff16021790555064e8d4a5100060035534801561007e57600080fd5b50610094565b604051610a1b80610e1583390190565b610d72806100a36000396000f30060806040526004361061006d576000357c0100000000000000000000000000000000000000000000000000000000900463ffffffff1680630e52bb49146100725780633397741b146100a3578063ced1b7081461010f578063eb8ac9211461024a578063fcc6077d14610295575b600080fd5b6100a16004803603810190808035600019169060200190929190803560ff1690602001909291905050506103f0565b005b3480156100af57600080fd5b506100b861085e565b6040518080602001828103825283818151815260200191508051906020019060200280838360005b838110156100fb5780820151818401526020810190506100e0565b505050509050019250505060405180910390f35b34801561011b57600080fd5b5061012461097c565b604051808860001916600019168152602001806020018060200187815260200186815260200185600381111561015657fe5b60ff1681526020018460000b60000b8152602001838103835289818151815260200191508051906020019080838360005b838110156101a2578082015181840152602081019050610187565b50505050905090810190601f1680156101cf5780820380516001836020036101000a031916815260200191505b50838103825288818151815260200191508051906020019080838360005b838110156102085780820151818401526020810190506101ed565b50505050905090810190601f1680156102355780820380516001836020036101000a031916815260200191505b50995050505050505050505060405180910390f35b34801561025657600080fd5b5061027f6004803603810190808035906020019092919080359060200190929190505050610b4f565b6040518082815260200191505060405180910390f35b3480156102a157600080fd5b506102c46004803603810190808035600019169060200190929190505050610b5c565b60405180886000191660001916815260200180602001806020018760ff1660ff1681526020018681526020018560038111156102fc57fe5b60ff1681526020018460000b60000b8152602001838103835289818151815260200191508051906020019080838360005b8381101561034857808201518184015260208101905061032d565b50505050905090810190601f1680156103755780820380516001836020036101000a031916815260200191505b50838103825288818151815260200191508051906020019080838360005b838110156103ae578082015181840152602081019050610393565b50505050905090810190601f1680156103db5780820380516001836020036101000a031916815260200191505b50995050505050505050505060405180910390f35b6000806003543410151515610493576040517f08c379a00000000000000000000000000000000000000000000000000000000081526004018080602001828103825260218152602001807f42657420616d6f756e74206d757374206265203e3d206d696e696d756d20626581526020017f740000000000000000000000000000000000000000000000000000000000000081525060400191505060405180910390fd5b600260009054906101000a900473ffffffffffffffffffffffffffffffffffffffff1673ffffffffffffffffffffffffffffffffffffffff1663a9345240856040518263ffffffff167c0100000000000000000000000000000000000000000000000000000000028152600401808260001916600019168152602001915050602060405180830381600087803b15801561052c57600080fd5b505af1158015610540573d6000803e3d6000fd5b505050506040513d602081101561055657600080fd5b810190808051906020019092919050505015156105db576040517f08c379a00000000000000000000000000000000000000000000000000000000081526004018080602001828103825260198152602001807f537065636966696564206d61746368206e6f7420666f756e640000000000000081525060200191505060405180910390fd5b6105e6338585610d2e565b151561065a576040517f08c379a00000000000000000000000000000000000000000000000000000000081526004018080602001828103825260108152602001807f426574206973206e6f742076616c69640000000000000000000000000000000081525060200191505060405180910390fd5b61066384610d3b565b15156106d7576040517f08c379a000000000000000000000000000000000000000000000000000000000815260040180806020018281038252601a8152602001807f4d61746368206e6f74206f70656e20666f722062657474696e6700000000000081525060200191505060405180910390fd5b60016000856000191660001916815260200190815260200160002091506001826080604051908101604052803373ffffffffffffffffffffffffffffffffffffffff168152602001876000191681526020013481526020018660ff168152509080600181540180825580915050906001820390600052602060002090600402016000909192909190915060008201518160000160006101000a81548173ffffffffffffffffffffffffffffffffffffffff021916908373ffffffffffffffffffffffffffffffffffffffff160217905550602082015181600101906000191690556040820151816002015560608201518160030160006101000a81548160ff021916908360ff160217905550505050506000803373ffffffffffffffffffffffffffffffffffffffff1673ffffffffffffffffffffffffffffffffffffffff16815260200190815260200160002090508084908060018154018082558091505090600182039060005260206000200160009091929091909150906000191690555050505050565b6060600260009054906101000a900473ffffffffffffffffffffffffffffffffffffffff1673ffffffffffffffffffffffffffffffffffffffff16635f29d4b16040518163ffffffff167c0100000000000000000000000000000000000000000000000000000000028152600401600060405180830381600087803b1580156108e657600080fd5b505af11580156108fa573d6000803e3d6000fd5b505050506040513d6000823e3d601f19601f82011682018060405250602081101561092457600080fd5b81019080805164010000000081111561093c57600080fd5b8281019050602081018481111561095257600080fd5b815185602082028301116401000000008211171561096f57600080fd5b5050929190505050905090565b6000606080600080600080600260009054906101000a900473ffffffffffffffffffffffffffffffffffffffff1673ffffffffffffffffffffffffffffffffffffffff1663bb2b0f5860016040518263ffffffff167c01000000000000000000000000000000000000000000000000000000000281526004018082151515158152602001915050600060405180830381600087803b158015610a1d57600080fd5b505af1158015610a31573d6000803e3d6000fd5b505050506040513d6000823e3d601f19601f8201168201806040525060e0811015610a5b57600080fd5b81019080805190602001909291908051640100000000811115610a7d57600080fd5b82810190506020810184811115610a9357600080fd5b8151856001820283011164010000000082111715610ab057600080fd5b50509291906020018051640100000000811115610acc57600080fd5b82810190506020810184811115610ae257600080fd5b8151856001820283011164010000000082111715610aff57600080fd5b5050929190602001805190602001909291908051906020019092919080519060200190929190805190602001909291905050508360ff169350965096509650965096509650965090919293949596565b6000818301905092915050565b6000606080600080600080600260009054906101000a900473ffffffffffffffffffffffffffffffffffffffff1673ffffffffffffffffffffffffffffffffffffffff1663fcc6077d896040518263ffffffff167c0100000000000000000000000000000000000000000000000000000000028152600401808260001916600019168152602001915050600060405180830381600087803b158015610c0057600080fd5b505af1158015610c14573d6000803e3d6000fd5b505050506040513d6000823e3d601f19601f8201168201806040525060e0811015610c3e57600080fd5b81019080805190602001909291908051640100000000811115610c6057600080fd5b82810190506020810184811115610c7657600080fd5b8151856001820283011164010000000082111715610c9357600080fd5b50509291906020018051640100000000811115610caf57600080fd5b82810190506020810184811115610cc557600080fd5b8151856001820283011164010000000082111715610ce257600080fd5b5050929190602001805190602001909291908051906020019092919080519060200190929190805190602001909291905050509650965096509650965096509650919395979092949650565b6000600190509392505050565b6000600190509190505600a165627a7a723058208429bcc40071c2ba7013f568c7a9b557476d7c21e40b9314d52eb74434dfa06e0029608060405234801561001057600080fd5b506109fb806100206000396000f30060806040526004361061006d576000357c0100000000000000000000000000000000000000000000000000000000900463ffffffff1680635f29d4b114610072578063a9345240146100de578063bb2b0f5814610127578063c17c5a4514610280578063fcc6077d146102ec575b600080fd5b34801561007e57600080fd5b50610087610447565b6040518080602001828103825283818151815260200191508051906020019060200280838360005b838110156100ca5780820151818401526020810190506100af565b505050509050019250505060405180910390f35b3480156100ea57600080fd5b5061010d60048036038101908080356000191690602001909291905050506105d2565b604051808215151515815260200191505060405180910390f35b34801561013357600080fd5b50610154600480360381019080803515159060200190929190505050610616565b60405180886000191660001916815260200180602001806020018760ff1660ff16815260200186815260200185600381111561018c57fe5b60ff1681526020018460000b60000b8152602001838103835289818151815260200191508051906020019080838360005b838110156101d85780820151818401526020810190506101bd565b50505050905090810190601f1680156102055780820380516001836020036101000a031916815260200191505b50838103825288818151815260200191508051906020019080838360005b8381101561023e578082015181840152602081019050610223565b50505050905090810190601f16801561026b5780820380516001836020036101000a031916815260200191505b50995050505050505050505060405180910390f35b34801561028c57600080fd5b50610295610696565b6040518080602001828103825283818151815260200191508051906020019060200280838360005b838110156102d85780820151818401526020810190506102bd565b505050509050019250505060405180910390f35b3480156102f857600080fd5b5061031b600480360381019080803560001916906020019092919050505061075e565b60405180886000191660001916815260200180602001806020018760ff1660ff16815260200186815260200185600381111561035357fe5b60ff1681526020018460000b60000b8152602001838103835289818151815260200191508051906020019080838360005b8381101561039f578082015181840152602081019050610384565b50505050905090810190601f1680156103cc5780820380516001836020036101000a031916815260200191505b50838103825288818151815260200191508051906020019080838360005b838110156104055780820151818401526020810190506103ea565b50505050905090810190601f1680156104325780820380516001836020036101000a031916815260200191505b50995050505050505050505060405180910390f35b6060600080606060008060009450600093505b6001805490508410156104c9576000600381111561047457fe5b60018581548110151561048357fe5b906000526020600020906006020160050160009054906101000a900460ff1660038111156104ad57fe5b14156104bc5784806001019550505b838060010194505061045a565b846040519080825280602002602001820160405280156104f85781602001602082028038833980820191505090505b50925060008511156105c7576000915060018054905090505b60008111156105c6576000600381111561052757fe5b600180830381548110151561053857fe5b906000526020600020906006020160050160009054906101000a900460ff16600381111561056257fe5b14156105b857600180820381548110151561057957fe5b906000526020600020906006020160000154838380600101945081518110151561059f57fe5b9060200190602002019060001916908160001916815250505b808060019003915050610511565b5b829550505050505090565b600080600060018054905014156105ec5760009150610610565b60008084600019166000191681526020019081526020016000205490506000811191505b50919050565b6000606080600080600080600060606000600102915089156106415761063a610447565b905061064c565b610649610696565b90505b6000815111156106725780600081518110151561066557fe5b9060200190602002015191505b61067b8261075e565b98509850985098509850985098505050919395979092949650565b6060806000806001805490506040519080825280602002602001820160405280156106d05781602001602082028038833980820191505090505b50925060006001805490501115610755576000915060018054905090505b600081111561075457600180820381548110151561070857fe5b906000526020600020906006020160000154838380600101945081518110151561072e57fe5b9060200190602002019060001916908160001916815250508080600190039150506106ee565b5b82935050505090565b60006060806000806000806000610774896105d2565b156109335760016107848a6109a8565b81548110151561079057fe5b90600052602060002090600602019050806000015481600101826002018360030160009054906101000a900460ff1684600401548560050160009054906101000a900460ff168660050160019054906101000a900460000b858054600181600116156101000203166002900480601f01602080910402602001604051908101604052809291908181526020018280546001816001161561010002031660029004801561087d5780601f106108525761010080835404028352916020019161087d565b820191906000526020600020905b81548152906001019060200180831161086057829003601f168201915b50505050509550848054600181600116156101000203166002900480601f0160208091040260200160405190810160405280929190818152602001828054600181600116156101000203166002900480156109195780601f106108ee57610100808354040283529160200191610919565b820191906000526020600020905b8154815290600101906020018083116108fc57829003601f168201915b50505050509450975097509750975097509750975061099c565b8860008060007fffffffffffffffffffffffffffffffffffffffffffffffffffffffffffffffff60206040519081016040528060008152509392919060206040519081016040528060008152509392919083935082925080905097509750975097509750975097505b50919395979092949650565b600060016000808460001916600019168152602001908152602001600020540390509190505600a165627a7a72305820dc949a405a004dd7a8ac847d34b9fe3d3e69cd9e876ea4af09faca3ba57e15cf0029",
  "source": "pragma solidity ^0.4.17;\n\nimport \"./OracleInterface.sol\";\n\n\n/// @title BoxingBets\n/// @author John R. Kosinski\n/// @notice Takes bets and handles payouts for boxing matches \ncontract BoxingBets {\n    \n    //mappings \n    mapping(address => bytes32[]) private userToBets;\n    mapping(bytes32 => Bet[]) private matchToBets;\n\n    //boxing results oracle \n    OracleInterface internal boxingOracle = new OracleInterface(); \n\n    //constants\n    uint internal minimumBet = 1000000000000;\n\n    struct Bet {\n        address user;\n        bytes32 matchId;\n        uint amount; \n        uint8 chosenWinner; \n    }\n\n    enum BettableOutcome {\n        Fighter1,\n        Fighter2\n    }\n\n    /// @notice determines whether or not the user has already bet on the given match\n    /// @param _user address of a user\n    /// @param _matchId id of a match \n    /// @param _chosenWinner the index of the participant to bet on (to win)\n    /// @return true if the given user has already placed a bet on the given match \n    function _betIsValid(address _user, bytes32 _matchId, uint8 _chosenWinner) private view returns (bool) {\n\n        return true;\n    }\n\n    /// @notice determines whether or not bets may still be accepted for the given match\n    /// @param _matchId id of a match \n    /// @return true if the match is bettable \n    function _matchOpenForBetting(bytes32 _matchId) private view returns (bool) {\n        \n        return true;\n    }\n\n \n    /// @notice gets a list ids of all currently bettable matches\n    /// @return array of match ids \n    function getBettableMatches() public view returns (bytes32[]) {\n        return boxingOracle.getPendingMatches(); \n    }\n\n    /// @notice returns the full data of the specified match \n    /// @param _matchId the id of the desired match\n    /// @return match data \n    function getMatch(bytes32 _matchId) public view returns (\n        bytes32 id,\n        string name, \n        string participants,\n        uint8 participantCount,\n        uint date, \n        OracleInterface.MatchOutcome outcome, \n        int8 winner) { \n\n        return boxingOracle.getMatch(_matchId); \n    }\n\n    /// @notice returns the full data of the most recent bettable match \n    /// @return match data \n    function getMostRecentMatch() public view returns (\n        bytes32 id,\n        string name, \n        string participants,\n        uint participantCount, \n        uint date, \n        OracleInterface.MatchOutcome outcome, \n        int8 winner) { \n\n        return boxingOracle.getMostRecentMatch(true); \n    }\n\n    /// @notice places a non-rescindable bet on the given match \n    /// @param _matchId the id of the match on which to bet \n    /// @param _chosenWinner the index of the participant chosen as winner\n    function placeBet(bytes32 _matchId, uint8 _chosenWinner) public payable {\n\n        //bet must be above a certain minimum \n        require(msg.value >= minimumBet, \"Bet amount must be >= minimum bet\");\n\n        //make sure that match exists \n        require(boxingOracle.matchExists(_matchId), \"Specified match not found\"); \n\n        //require that chosen winner falls within the defined number of participants for match\n        require(_betIsValid(msg.sender, _matchId, _chosenWinner), \"Bet is not valid\");\n\n        //match must still be open for betting\n        require(_matchOpenForBetting(_matchId), \"Match not open for betting\"); \n\n        //transfer the money into the account \n        //address(this).transfer(msg.value);\n\n        //add the new bet \n        Bet[] storage bets = matchToBets[_matchId]; \n        bets.push(Bet(msg.sender, _matchId, msg.value, _chosenWinner))-1; \n\n        //add the mapping\n        bytes32[] storage userBets = userToBets[msg.sender]; \n        userBets.push(_matchId); \n    }\n\n    /// @notice for testing only; adds two numbers and returns result \n    /// @return uint sum of two uints  \n    function test(uint a, uint b) public pure returns (uint) {\n        return (a + b); \n    }\n}",
  "sourcePath": "/media/acer/D/clients/toptal/articles/eth-oracle/repo/oracle-example/client/contracts/BoxingBets.sol",
  "compiler": {
    "name": "solc",
    "version": "0.4.24+commit.e67f0147.Emscripten.clang"
  },
  "schemaVersion": "2.0.1",
  "updatedAt": "2018-09-26T03:28:45.195Z"
}