{
  "contractName": "BoxingBets",
  "abi": [
    {
      "anonymous": false,
      "inputs": [
        {
          "indexed": true,
          "internalType": "address",
          "name": "previousOwner",
          "type": "address"
        },
        {
          "indexed": true,
          "internalType": "address",
          "name": "newOwner",
          "type": "address"
        }
      ],
      "name": "OwnershipTransferred",
      "type": "event"
    },
    {
      "inputs": [],
      "name": "owner",
      "outputs": [
        {
          "internalType": "address",
          "name": "",
          "type": "address"
        }
      ],
      "stateMutability": "view",
      "type": "function",
      "constant": true
    },
    {
      "inputs": [
        {
          "internalType": "address",
          "name": "newOwner",
          "type": "address"
        }
      ],
      "name": "transferOwnership",
      "outputs": [],
      "stateMutability": "nonpayable",
      "type": "function"
    },
    {
      "inputs": [
        {
          "internalType": "address",
          "name": "_oracleAddress",
          "type": "address"
        }
      ],
      "name": "setOracleAddress",
      "outputs": [
        {
          "internalType": "bool",
          "name": "",
          "type": "bool"
        }
      ],
      "stateMutability": "nonpayable",
      "type": "function"
    },
    {
      "inputs": [],
      "name": "getOracleAddress",
      "outputs": [
        {
          "internalType": "address",
          "name": "",
          "type": "address"
        }
      ],
      "stateMutability": "view",
      "type": "function",
      "constant": true
    },
    {
      "inputs": [],
      "name": "getBettableMatches",
      "outputs": [
        {
          "internalType": "bytes32[]",
          "name": "",
          "type": "bytes32[]"
        }
      ],
      "stateMutability": "view",
      "type": "function",
      "constant": true
    },
    {
      "inputs": [
        {
          "internalType": "bytes32",
          "name": "_matchId",
          "type": "bytes32"
        }
      ],
      "name": "getMatch",
      "outputs": [
        {
          "internalType": "bytes32",
          "name": "id",
          "type": "bytes32"
        },
        {
          "internalType": "string",
          "name": "name",
          "type": "string"
        },
        {
          "internalType": "string",
          "name": "participants",
          "type": "string"
        },
        {
          "internalType": "uint8",
          "name": "participantCount",
          "type": "uint8"
        },
        {
          "internalType": "uint256",
          "name": "date",
          "type": "uint256"
        },
        {
          "internalType": "enum OracleInterface.MatchOutcome",
          "name": "outcome",
          "type": "uint8"
        },
        {
          "internalType": "int8",
          "name": "winner",
          "type": "int8"
        }
      ],
      "stateMutability": "view",
      "type": "function",
      "constant": true
    },
    {
      "inputs": [],
      "name": "getMostRecentMatch",
      "outputs": [
        {
          "internalType": "bytes32",
          "name": "id",
          "type": "bytes32"
        },
        {
          "internalType": "string",
          "name": "name",
          "type": "string"
        },
        {
          "internalType": "string",
          "name": "participants",
          "type": "string"
        },
        {
          "internalType": "uint256",
          "name": "participantCount",
          "type": "uint256"
        },
        {
          "internalType": "uint256",
          "name": "date",
          "type": "uint256"
        },
        {
          "internalType": "enum OracleInterface.MatchOutcome",
          "name": "outcome",
          "type": "uint8"
        },
        {
          "internalType": "int8",
          "name": "winner",
          "type": "int8"
        }
      ],
      "stateMutability": "view",
      "type": "function",
      "constant": true
    },
    {
      "inputs": [
        {
          "internalType": "bytes32",
          "name": "_matchId",
          "type": "bytes32"
        },
        {
          "internalType": "uint8",
          "name": "_chosenWinner",
          "type": "uint8"
        }
      ],
      "name": "placeBet",
      "outputs": [],
      "stateMutability": "payable",
      "type": "function",
      "payable": true
    },
    {
      "inputs": [],
      "name": "testOracleConnection",
      "outputs": [
        {
          "internalType": "bool",
          "name": "",
          "type": "bool"
        }
      ],
      "stateMutability": "view",
      "type": "function",
      "constant": true
    }
  ],
  "bytecode": "0x608060405273ac43b6b6cb4666e95795538c70658dea06b57189600360006101000a81548173ffffffffffffffffffffffffffffffffffffffff021916908373ffffffffffffffffffffffffffffffffffffffff160217905550600360009054906101000a900473ffffffffffffffffffffffffffffffffffffffff16600460006101000a81548173ffffffffffffffffffffffffffffffffffffffff021916908373ffffffffffffffffffffffffffffffffffffffff16021790555064e8d4a510006005553480156100d157600080fd5b50336000806101000a81548173ffffffffffffffffffffffffffffffffffffffff021916908373ffffffffffffffffffffffffffffffffffffffff160217905550611785806101216000396000f3fe6080604052600436106100865760003560e01c80638da5cb5b116100595780638da5cb5b1461013a578063b18b78dd14610165578063ced1b70814610190578063f2fde38b146101c1578063fcc6077d146101ea57610086565b80630e52bb491461008b5780632ce3707e146100a75780633397741b146100d25780634c69c00f146100fd575b600080fd5b6100a560048036038101906100a09190610fc0565b61022d565b005b3480156100b357600080fd5b506100bc610558565b6040516100c991906111ec565b60405180910390f35b3480156100de57600080fd5b506100e76105ff565b6040516100f491906111ca565b60405180910390f35b34801561010957600080fd5b50610124600480360381019061011f9190610d68565b6106ab565b60405161013191906111ec565b60405180910390f35b34801561014657600080fd5b5061014f610851565b60405161015c91906111af565b60405180910390f35b34801561017157600080fd5b5061017a610875565b60405161018791906111af565b60405180910390f35b34801561019c57600080fd5b506101a561089f565b6040516101b89796959493929190611222565b60405180910390f35b3480156101cd57600080fd5b506101e860048036038101906101e39190610d68565b610972565b005b3480156101f657600080fd5b50610211600480360381019061020c9190610dfb565b610ac1565b604051610224979695949392919061129f565b60405180910390f35b600554341015610272576040517f08c379a00000000000000000000000000000000000000000000000000000000081526004016102699061137c565b60405180910390fd5b600460009054906101000a900473ffffffffffffffffffffffffffffffffffffffff1673ffffffffffffffffffffffffffffffffffffffff1663a9345240836040518263ffffffff1660e01b81526004016102cd9190611207565b60206040518083038186803b1580156102e557600080fd5b505afa1580156102f9573d6000803e3d6000fd5b505050506040513d601f19601f8201168201806040525081019061031d9190610dd2565b61035c576040517f08c379a00000000000000000000000000000000000000000000000000000000081526004016103539061133c565b60405180910390fd5b610367338383610b95565b6103a6576040517f08c379a000000000000000000000000000000000000000000000000000000000815260040161039d9061135c565b60405180910390fd5b6103af82610ba2565b6103ee576040517f08c379a00000000000000000000000000000000000000000000000000000000081526004016103e59061131c565b60405180910390fd5b60006002600084815260200190815260200160002090508060405180608001604052803373ffffffffffffffffffffffffffffffffffffffff1681526020018581526020013481526020018460ff16815250908060018154018082558091505060019003906000526020600020906004020160009091909190915060008201518160000160006101000a81548173ffffffffffffffffffffffffffffffffffffffff021916908373ffffffffffffffffffffffffffffffffffffffff160217905550602082015181600101556040820151816002015560608201518160030160006101000a81548160ff021916908360ff16021790555050506000600160003373ffffffffffffffffffffffffffffffffffffffff1673ffffffffffffffffffffffffffffffffffffffff16815260200190815260200160002090508084908060018154018082558091505060019003906000526020600020016000909190919091505550505050565b6000600460009054906101000a900473ffffffffffffffffffffffffffffffffffffffff1673ffffffffffffffffffffffffffffffffffffffff16633412a15c6040518163ffffffff1660e01b815260040160206040518083038186803b1580156105c257600080fd5b505afa1580156105d6573d6000803e3d6000fd5b505050506040513d601f19601f820116820180604052508101906105fa9190610dd2565b905090565b6060600460009054906101000a900473ffffffffffffffffffffffffffffffffffffffff1673ffffffffffffffffffffffffffffffffffffffff16635f29d4b16040518163ffffffff1660e01b815260040160006040518083038186803b15801561066957600080fd5b505afa15801561067d573d6000803e3d6000fd5b505050506040513d6000823e3d601f19601f820116820180604052508101906106a69190610d91565b905090565b60008060009054906101000a900473ffffffffffffffffffffffffffffffffffffffff1673ffffffffffffffffffffffffffffffffffffffff163373ffffffffffffffffffffffffffffffffffffffff161461070657600080fd5b81600360006101000a81548173ffffffffffffffffffffffffffffffffffffffff021916908373ffffffffffffffffffffffffffffffffffffffff160217905550600360009054906101000a900473ffffffffffffffffffffffffffffffffffffffff16600460006101000a81548173ffffffffffffffffffffffffffffffffffffffff021916908373ffffffffffffffffffffffffffffffffffffffff160217905550600460009054906101000a900473ffffffffffffffffffffffffffffffffffffffff1673ffffffffffffffffffffffffffffffffffffffff16633412a15c6040518163ffffffff1660e01b815260040160206040518083038186803b15801561081257600080fd5b505afa158015610826573d6000803e3d6000fd5b505050506040513d601f19601f8201168201806040525081019061084a9190610dd2565b9050919050565b60008054906101000a900473ffffffffffffffffffffffffffffffffffffffff1681565b6000600360009054906101000a900473ffffffffffffffffffffffffffffffffffffffff16905090565b6000606080600080600080600460009054906101000a900473ffffffffffffffffffffffffffffffffffffffff1673ffffffffffffffffffffffffffffffffffffffff1663bb2b0f5860016040518263ffffffff1660e01b815260040161090691906111ec565b60006040518083038186803b15801561091e57600080fd5b505afa158015610932573d6000803e3d6000fd5b505050506040513d6000823e3d601f19601f8201168201806040525081019061095b9190610e24565b965096509650965096509650965090919293949596565b60008054906101000a900473ffffffffffffffffffffffffffffffffffffffff1673ffffffffffffffffffffffffffffffffffffffff163373ffffffffffffffffffffffffffffffffffffffff16146109ca57600080fd5b600073ffffffffffffffffffffffffffffffffffffffff168173ffffffffffffffffffffffffffffffffffffffff161415610a0457600080fd5b8073ffffffffffffffffffffffffffffffffffffffff1660008054906101000a900473ffffffffffffffffffffffffffffffffffffffff1673ffffffffffffffffffffffffffffffffffffffff167f8be0079c531659141344cd1fd0a4f28419497f9722a3daafe3b4186f6b6457e060405160405180910390a3806000806101000a81548173ffffffffffffffffffffffffffffffffffffffff021916908373ffffffffffffffffffffffffffffffffffffffff16021790555050565b6000606080600080600080600460009054906101000a900473ffffffffffffffffffffffffffffffffffffffff1673ffffffffffffffffffffffffffffffffffffffff1663fcc6077d896040518263ffffffff1660e01b8152600401610b279190611207565b60006040518083038186803b158015610b3f57600080fd5b505afa158015610b53573d6000803e3d6000fd5b505050506040513d6000823e3d601f19601f82011682018060405250810190610b7c9190610ef2565b9650965096509650965096509650919395979092949650565b6000600190509392505050565b600060019050919050565b6000610bc0610bbb846113c1565b61139c565b90508083825260208201905082856020860282011115610bdf57600080fd5b60005b85811015610c0f5781610bf58882610cc0565b845260208401935060208301925050600181019050610be2565b5050509392505050565b6000610c2c610c27846113ed565b61139c565b905082815260208101848484011115610c4457600080fd5b610c4f848285611504565b509392505050565b600081359050610c66816116b5565b92915050565b600082601f830112610c7d57600080fd5b8151610c8d848260208601610bad565b91505092915050565b600081519050610ca5816116cc565b92915050565b600081359050610cba816116e3565b92915050565b600081519050610ccf816116e3565b92915050565b600081519050610ce4816116fa565b92915050565b600081519050610cf98161170a565b92915050565b600082601f830112610d1057600080fd5b8151610d20848260208601610c19565b91505092915050565b600081519050610d3881611721565b92915050565b600081359050610d4d81611738565b92915050565b600081519050610d6281611738565b92915050565b600060208284031215610d7a57600080fd5b6000610d8884828501610c57565b91505092915050565b600060208284031215610da357600080fd5b600082015167ffffffffffffffff811115610dbd57600080fd5b610dc984828501610c6c565b91505092915050565b600060208284031215610de457600080fd5b6000610df284828501610c96565b91505092915050565b600060208284031215610e0d57600080fd5b6000610e1b84828501610cab565b91505092915050565b600080600080600080600060e0888a031215610e3f57600080fd5b6000610e4d8a828b01610cc0565b975050602088015167ffffffffffffffff811115610e6a57600080fd5b610e768a828b01610cff565b965050604088015167ffffffffffffffff811115610e9357600080fd5b610e9f8a828b01610cff565b9550506060610eb08a828b01610d29565b9450506080610ec18a828b01610d29565b93505060a0610ed28a828b01610cd5565b92505060c0610ee38a828b01610cea565b91505092959891949750929550565b600080600080600080600060e0888a031215610f0d57600080fd5b6000610f1b8a828b01610cc0565b975050602088015167ffffffffffffffff811115610f3857600080fd5b610f448a828b01610cff565b965050604088015167ffffffffffffffff811115610f6157600080fd5b610f6d8a828b01610cff565b9550506060610f7e8a828b01610d53565b9450506080610f8f8a828b01610d29565b93505060a0610fa08a828b01610cd5565b92505060c0610fb18a828b01610cea565b91505092959891949750929550565b60008060408385031215610fd357600080fd5b6000610fe185828601610cab565b9250506020610ff285828601610d3e565b9150509250929050565b60006110088383611090565b60208301905092915050565b61101d81611473565b82525050565b600061102e8261142e565b6110388185611451565b93506110438361141e565b8060005b8381101561107457815161105b8882610ffc565b975061106683611444565b925050600181019050611047565b5085935050505092915050565b61108a81611485565b82525050565b61109981611491565b82525050565b6110a881611491565b82525050565b6110b7816114f2565b82525050565b6110c6816114ae565b82525050565b60006110d782611439565b6110e18185611462565b93506110f1818560208601611504565b6110fa816115c6565b840191505092915050565b6000611112601a83611462565b915061111d826115d7565b602082019050919050565b6000611135601983611462565b915061114082611600565b602082019050919050565b6000611158601083611462565b915061116382611629565b602082019050919050565b600061117b602183611462565b915061118682611652565b604082019050919050565b61119a816114db565b82525050565b6111a9816114e5565b82525050565b60006020820190506111c46000830184611014565b92915050565b600060208201905081810360008301526111e48184611023565b905092915050565b60006020820190506112016000830184611081565b92915050565b600060208201905061121c600083018461109f565b92915050565b600060e082019050611237600083018a61109f565b818103602083015261124981896110cc565b9050818103604083015261125d81886110cc565b905061126c6060830187611191565b6112796080830186611191565b61128660a08301856110ae565b61129360c08301846110bd565b98975050505050505050565b600060e0820190506112b4600083018a61109f565b81810360208301526112c681896110cc565b905081810360408301526112da81886110cc565b90506112e960608301876111a0565b6112f66080830186611191565b61130360a08301856110ae565b61131060c08301846110bd565b98975050505050505050565b6000602082019050818103600083015261133581611105565b9050919050565b6000602082019050818103600083015261135581611128565b9050919050565b600060208201905081810360008301526113758161114b565b9050919050565b600060208201905081810360008301526113958161116e565b9050919050565b60006113a66113b7565b90506113b28282611537565b919050565b6000604051905090565b600067ffffffffffffffff8211156113dc576113db611597565b5b602082029050602081019050919050565b600067ffffffffffffffff82111561140857611407611597565b5b611411826115c6565b9050602081019050919050565b6000819050602082019050919050565b600081519050919050565b600081519050919050565b6000602082019050919050565b600082825260208201905092915050565b600082825260208201905092915050565b600061147e826114bb565b9050919050565b60008115159050919050565b6000819050919050565b60008190506114a9826116a1565b919050565b60008160000b9050919050565b600073ffffffffffffffffffffffffffffffffffffffff82169050919050565b6000819050919050565b600060ff82169050919050565b60006114fd8261149b565b9050919050565b60005b83811015611522578082015181840152602081019050611507565b83811115611531576000848401525b50505050565b611540826115c6565b810181811067ffffffffffffffff8211171561155f5761155e611597565b5b80604052505050565b7f4e487b7100000000000000000000000000000000000000000000000000000000600052602160045260246000fd5b7f4e487b7100000000000000000000000000000000000000000000000000000000600052604160045260246000fd5b6000601f19601f8301169050919050565b7f4d61746368206e6f74206f70656e20666f722062657474696e67000000000000600082015250565b7f537065636966696564206d61746368206e6f7420666f756e6400000000000000600082015250565b7f426574206973206e6f742076616c696400000000000000000000000000000000600082015250565b7f42657420616d6f756e74206d757374206265203e3d206d696e696d756d20626560008201527f7400000000000000000000000000000000000000000000000000000000000000602082015250565b600481106116b2576116b1611568565b5b50565b6116be81611473565b81146116c957600080fd5b50565b6116d581611485565b81146116e057600080fd5b50565b6116ec81611491565b81146116f757600080fd5b50565b6004811061170757600080fd5b50565b611713816114ae565b811461171e57600080fd5b50565b61172a816114db565b811461173557600080fd5b50565b611741816114e5565b811461174c57600080fd5b5056fea2646970667358221220b519aa13c921f6831a09e90af4b9aee22b189c4564b2c738fc88c64c5f01668564736f6c63430008040033",
  "immutableReferences": {},
  "source": "// SPDX-License-Identifier: MIT\r\npragma solidity ^0.8.4;\r\n\r\nimport \"./OracleInterface.sol\";\r\nimport \"./Ownable.sol\";\r\n\r\n/// @title BoxingBets\r\n/// @author John R. Kosinski\r\n/// @notice Takes bets and handles payouts for boxing matches\r\ncontract BoxingBets is Ownable {\r\n    //mappings\r\n    mapping(address => bytes32[]) private userToBets;\r\n    mapping(bytes32 => Bet[]) private matchToBets;\r\n\r\n    //boxing results oracle\r\n    address internal boxingOracleAddr =\r\n        0xac43B6b6CB4666E95795538C70658DeA06B57189;\r\n    OracleInterface internal boxingOracle = OracleInterface(boxingOracleAddr);\r\n\r\n    //constants\r\n    uint internal minimumBet = 1000000000000;\r\n\r\n    struct Bet {\r\n        address user;\r\n        bytes32 matchId;\r\n        uint amount;\r\n        uint8 chosenWinner;\r\n    }\r\n\r\n    enum BettableOutcome {\r\n        Fighter1,\r\n        Fighter2\r\n    }\r\n\r\n    /// @notice determines whether or not the user has already bet on the given match\r\n    /// @param _user address of a user\r\n    /// @param _matchId id of a match\r\n    /// @param _chosenWinner the index of the participant to bet on (to win)\r\n    /// @return true if the given user has already placed a bet on the given match\r\n    function _betIsValid(\r\n        address _user,\r\n        bytes32 _matchId,\r\n        uint8 _chosenWinner\r\n    ) private view returns (bool) {\r\n        return true;\r\n    }\r\n\r\n    /// @notice determines whether or not bets may still be accepted for the given match\r\n    /// @param _matchId id of a match\r\n    /// @return true if the match is bettable\r\n    function _matchOpenForBetting(\r\n        bytes32 _matchId\r\n    ) private view returns (bool) {\r\n        return true;\r\n    }\r\n\r\n    /// @notice sets the address of the boxing oracle contract to use\r\n    /// @dev setting a wrong address may result in false return value, or error\r\n    /// @param _oracleAddress the address of the boxing oracle\r\n    /// @return true if connection to the new oracle address was successful\r\n    function setOracleAddress(\r\n        address _oracleAddress\r\n    ) external onlyOwner returns (bool) {\r\n        boxingOracleAddr = _oracleAddress;\r\n        boxingOracle = OracleInterface(boxingOracleAddr);\r\n        return boxingOracle.testConnection();\r\n    }\r\n\r\n    /// @notice gets the address of the boxing oracle being used\r\n    /// @return the address of the currently set oracle\r\n    function getOracleAddress() external view returns (address) {\r\n        return boxingOracleAddr;\r\n    }\r\n\r\n    /// @notice gets a list ids of all currently bettable matches\r\n    /// @return array of match ids\r\n    function getBettableMatches() public view returns (bytes32[] memory) {\r\n        return boxingOracle.getPendingMatches();\r\n    }\r\n\r\n    /// @notice returns the full data of the specified match\r\n    /// @param _matchId the id of the desired match\r\n    /// @return id : match data\r\n    function getMatch(\r\n        bytes32 _matchId\r\n    )\r\n        public\r\n        view\r\n        returns (\r\n            bytes32 id,\r\n            string memory name,\r\n            string memory participants,\r\n            uint8 participantCount,\r\n            uint date,\r\n            OracleInterface.MatchOutcome outcome,\r\n            int8 winner\r\n        )\r\n    {\r\n        return boxingOracle.getMatch(_matchId);\r\n    }\r\n\r\n    /// @notice returns the full data of the most recent bettable match\r\n    /// @return id : match data\r\n    function getMostRecentMatch()\r\n        public\r\n        view\r\n        returns (\r\n            bytes32 id,\r\n            string memory name,\r\n            string memory participants,\r\n            uint participantCount,\r\n            uint date,\r\n            OracleInterface.MatchOutcome outcome,\r\n            int8 winner\r\n        )\r\n    {\r\n        return boxingOracle.getMostRecentMatch(true);\r\n    }\r\n\r\n    /// @notice places a non-rescindable bet on the given match\r\n    /// @param _matchId the id of the match on which to bet\r\n    /// @param _chosenWinner the index of the participant chosen as winner\r\n    function placeBet(bytes32 _matchId, uint8 _chosenWinner) public payable {\r\n        //bet must be above a certain minimum\r\n        require(msg.value >= minimumBet, \"Bet amount must be >= minimum bet\");\r\n\r\n        //make sure that match exists\r\n        require(\r\n            boxingOracle.matchExists(_matchId),\r\n            \"Specified match not found\"\r\n        );\r\n\r\n        //require that chosen winner falls within the defined number of participants for match\r\n        require(\r\n            _betIsValid(msg.sender, _matchId, _chosenWinner),\r\n            \"Bet is not valid\"\r\n        );\r\n\r\n        //match must still be open for betting\r\n        require(_matchOpenForBetting(_matchId), \"Match not open for betting\");\r\n\r\n        //transfer the money into the account\r\n        //address(this).transfer(msg.value);\r\n\r\n        //add the new bet\r\n        Bet[] storage bets = matchToBets[_matchId];\r\n        bets.push(Bet(msg.sender, _matchId, msg.value, _chosenWinner));\r\n\r\n        //add the mapping\r\n        bytes32[] storage userBets = userToBets[msg.sender];\r\n        userBets.push(_matchId);\r\n    }\r\n\r\n    /// @notice for testing; tests that the boxing oracle is callable\r\n    /// @return true if connection successful\r\n    function testOracleConnection() public view returns (bool) {\r\n        return boxingOracle.testConnection();\r\n    }\r\n}\r\n",
  "sourcePath": "C:\\Users\\USER\\oracle-example\\client\\contracts\\BoxingBets.sol",
  "compiler": {
    "name": "solc",
    "version": "0.8.4+commit.c7e474f2.Emscripten.clang"
  },
  "schemaVersion": "3.4.13",
  "updatedAt": "2023-04-29T14:56:16.532Z",
  "networkType": "ethereum",
  "devdoc": {
    "author": "John R. Kosinski",
    "kind": "dev",
    "methods": {
      "getBettableMatches()": {
        "returns": {
          "_0": "array of match ids"
        }
      },
      "getMatch(bytes32)": {
        "params": {
          "_matchId": "the id of the desired match"
        },
        "returns": {
          "id": ": match data"
        }
      },
      "getMostRecentMatch()": {
        "returns": {
          "id": ": match data"
        }
      },
      "getOracleAddress()": {
        "returns": {
          "_0": "the address of the currently set oracle"
        }
      },
      "placeBet(bytes32,uint8)": {
        "params": {
          "_chosenWinner": "the index of the participant chosen as winner",
          "_matchId": "the id of the match on which to bet"
        }
      },
      "setOracleAddress(address)": {
        "details": "setting a wrong address may result in false return value, or error",
        "params": {
          "_oracleAddress": "the address of the boxing oracle"
        },
        "returns": {
          "_0": "true if connection to the new oracle address was successful"
        }
      },
      "testOracleConnection()": {
        "returns": {
          "_0": "true if connection successful"
        }
      },
      "transferOwnership(address)": {
        "details": "Allows the current owner to transfer control of the contract to a newOwner.",
        "params": {
          "newOwner": "The address to transfer ownership to."
        }
      }
    },
    "title": "BoxingBets",
    "version": 1
  },
  "userdoc": {
    "kind": "user",
    "methods": {
      "getBettableMatches()": {
        "notice": "gets a list ids of all currently bettable matches"
      },
      "getMatch(bytes32)": {
        "notice": "returns the full data of the specified match"
      },
      "getMostRecentMatch()": {
        "notice": "returns the full data of the most recent bettable match"
      },
      "getOracleAddress()": {
        "notice": "gets the address of the boxing oracle being used"
      },
      "placeBet(bytes32,uint8)": {
        "notice": "places a non-rescindable bet on the given match"
      },
      "setOracleAddress(address)": {
        "notice": "sets the address of the boxing oracle contract to use"
      },
      "testOracleConnection()": {
        "notice": "for testing; tests that the boxing oracle is callable"
      }
    },
    "notice": "Takes bets and handles payouts for boxing matches",
    "version": 1
  }
}