{
  "contractName": "OracleInterface",
  "abi": [
    {
      "inputs": [],
      "name": "getPendingMatches",
      "outputs": [
        {
          "internalType": "bytes32[]",
          "name": "",
          "type": "bytes32[]"
        }
      ],
      "stateMutability": "view",
      "type": "function"
    },
    {
      "inputs": [],
      "name": "getAllMatches",
      "outputs": [
        {
          "internalType": "bytes32[]",
          "name": "",
          "type": "bytes32[]"
        }
      ],
      "stateMutability": "view",
      "type": "function"
    },
    {
      "inputs": [
        {
          "internalType": "bytes32",
          "name": "_matchId",
          "type": "bytes32"
        }
      ],
      "name": "matchExists",
      "outputs": [
        {
          "internalType": "bool",
          "name": "",
          "type": "bool"
        }
      ],
      "stateMutability": "view",
      "type": "function"
    },
    {
      "inputs": [
        {
          "internalType": "bytes32",
          "name": "_matchId",
          "type": "bytes32"
        }
      ],
      "name": "getMatch",
      "outputs": [
        {
          "internalType": "bytes32",
          "name": "id",
          "type": "bytes32"
        },
        {
          "internalType": "string",
          "name": "name",
          "type": "string"
        },
        {
          "internalType": "string",
          "name": "participants",
          "type": "string"
        },
        {
          "internalType": "uint8",
          "name": "participantCount",
          "type": "uint8"
        },
        {
          "internalType": "uint256",
          "name": "date",
          "type": "uint256"
        },
        {
          "internalType": "enum OracleInterface.MatchOutcome",
          "name": "outcome",
          "type": "uint8"
        },
        {
          "internalType": "int8",
          "name": "winner",
          "type": "int8"
        }
      ],
      "stateMutability": "view",
      "type": "function"
    },
    {
      "inputs": [
        {
          "internalType": "bool",
          "name": "_pending",
          "type": "bool"
        }
      ],
      "name": "getMostRecentMatch",
      "outputs": [
        {
          "internalType": "bytes32",
          "name": "id",
          "type": "bytes32"
        },
        {
          "internalType": "string",
          "name": "name",
          "type": "string"
        },
        {
          "internalType": "string",
          "name": "participants",
          "type": "string"
        },
        {
          "internalType": "uint8",
          "name": "participantCount",
          "type": "uint8"
        },
        {
          "internalType": "uint256",
          "name": "date",
          "type": "uint256"
        },
        {
          "internalType": "enum OracleInterface.MatchOutcome",
          "name": "outcome",
          "type": "uint8"
        },
        {
          "internalType": "int8",
          "name": "winner",
          "type": "int8"
        }
      ],
      "stateMutability": "view",
      "type": "function"
    }
  ],
  "bytecode": "0x608060405234801561001057600080fd5b50610e4b806100206000396000f3fe608060405234801561001057600080fd5b50600436106100575760003560e01c80635f29d4b11461005c578063a93452401461007a578063bb2b0f58146100aa578063c17c5a45146100e0578063fcc6077d146100fe575b600080fd5b610064610134565b6040516100719190610abb565b60405180910390f35b610094600480360381019061008f919061097a565b61046f565b6040516100a19190610add565b60405180910390f35b6100c460048036038101906100bf9190610951565b6104ab565b6040516100d79796959493929190610af8565b60405180910390f35b6100e8610553565b6040516100f59190610abb565b60405180910390f35b6101186004803603810190610113919061097a565b6106b5565b60405161012b9796959493929190610af8565b60405180910390f35b60606000805b60018054905081101561023a5760006003811115610181577f4e487b7100000000000000000000000000000000000000000000000000000000600052602160045260246000fd5b600182815481106101bb577f4e487b7100000000000000000000000000000000000000000000000000000000600052603260045260246000fd5b906000526020600020906006020160050160009054906101000a900460ff166003811115610212577f4e487b7100000000000000000000000000000000000000000000000000000000600052602160045260246000fd5b141561022757818061022390610cec565b9250505b808061023290610cec565b91505061013a565b5060008167ffffffffffffffff81111561027d577f4e487b7100000000000000000000000000000000000000000000000000000000600052604160045260246000fd5b6040519080825280602002602001820160405280156102ab5781602001602082028036833780820191505090505b50905060008211156104675760008060018054905090505b60008111156104645760006003811115610306577f4e487b7100000000000000000000000000000000000000000000000000000000600052602160045260246000fd5b600180836103149190610bca565b8154811061034b577f4e487b7100000000000000000000000000000000000000000000000000000000600052603260045260246000fd5b906000526020600020906006020160050160009054906101000a900460ff1660038111156103a2577f4e487b7100000000000000000000000000000000000000000000000000000000600052602160045260246000fd5b141561045157600180826103b69190610bca565b815481106103ed577f4e487b7100000000000000000000000000000000000000000000000000000000600052603260045260246000fd5b90600052602060002090600602016000015483838061040b90610cec565b945081518110610444577f4e487b7100000000000000000000000000000000000000000000000000000000600052603260045260246000fd5b6020026020010181815250505b808061045c90610c90565b9150506102c3565b50505b809250505090565b600080600180549050141561048757600090506104a6565b6000806000848152602001908152602001600020549050600081119150505b919050565b600060608060008060008060008060001b9050606089156104d5576104ce610134565b90506104e0565b6104dd610553565b90505b60008151111561052f5780600081518110610524577f4e487b7100000000000000000000000000000000000000000000000000000000600052603260045260246000fd5b602002602001015191505b610538826106b5565b98509850985098509850985098505050919395979092949650565b6060600060018054905067ffffffffffffffff81111561059c577f4e487b7100000000000000000000000000000000000000000000000000000000600052604160045260246000fd5b6040519080825280602002602001820160405280156105ca5781602001602082028036833780820191505090505b509050600060018054905011156106ae5760008060018054905090505b60008111156106ab57600180826105fe9190610bca565b81548110610635577f4e487b7100000000000000000000000000000000000000000000000000000000600052603260045260246000fd5b90600052602060002090600602016000015483838061065390610cec565b94508151811061068c577f4e487b7100000000000000000000000000000000000000000000000000000000600052603260045260246000fd5b60200260200101818152505080806106a390610c90565b9150506105e7565b50505b8091505090565b60006060806000806000806106c98861046f565b1561089657600060016106db8a6108ff565b81548110610712577f4e487b7100000000000000000000000000000000000000000000000000000000600052603260045260246000fd5b90600052602060002090600602019050806000015481600101826002018360030160009054906101000a900460ff1684600401548560050160009054906101000a900460ff168660050160019054906101000a900460000b85805461077690610cba565b80601f01602080910402602001604051908101604052809291908181526020018280546107a290610cba565b80156107ef5780601f106107c4576101008083540402835291602001916107ef565b820191906000526020600020905b8154815290600101906020018083116107d257829003601f168201915b5050505050955084805461080290610cba565b80601f016020809104026020016040519081016040528092919081815260200182805461082e90610cba565b801561087b5780601f106108505761010080835404028352916020019161087b565b820191906000526020600020905b81548152906001019060200180831161085e57829003601f168201915b505050505094509750975097509750975097509750506108f4565b8760008060007fffffffffffffffffffffffffffffffffffffffffffffffffffffffffffffffff6040518060200160405280600081525093929190604051806020016040528060008152509392919096509650965096509650965096505b919395979092949650565b60006001600080848152602001908152602001600020546109209190610bca565b9050919050565b60008135905061093681610de7565b92915050565b60008135905061094b81610dfe565b92915050565b60006020828403121561096357600080fd5b600061097184828501610927565b91505092915050565b60006020828403121561098c57600080fd5b600061099a8482850161093c565b91505092915050565b60006109af8383610a28565b60208301905092915050565b60006109c682610b85565b6109d08185610ba8565b93506109db83610b75565b8060005b83811015610a0c5781516109f388826109a3565b97506109fe83610b9b565b9250506001810190506109df565b5085935050505092915050565b610a2281610bfe565b82525050565b610a3181610c0a565b82525050565b610a4081610c0a565b82525050565b610a4f81610c4b565b82525050565b610a5e81610c27565b82525050565b6000610a6f82610b90565b610a798185610bb9565b9350610a89818560208601610c5d565b610a9281610dc2565b840191505092915050565b610aa681610c34565b82525050565b610ab581610c3e565b82525050565b60006020820190508181036000830152610ad581846109bb565b905092915050565b6000602082019050610af26000830184610a19565b92915050565b600060e082019050610b0d600083018a610a37565b8181036020830152610b1f8189610a64565b90508181036040830152610b338188610a64565b9050610b426060830187610aac565b610b4f6080830186610a9d565b610b5c60a0830185610a46565b610b6960c0830184610a55565b98975050505050505050565b6000819050602082019050919050565b600081519050919050565b600081519050919050565b6000602082019050919050565b600082825260208201905092915050565b600082825260208201905092915050565b6000610bd582610c34565b9150610be083610c34565b925082821015610bf357610bf2610d35565b5b828203905092915050565b60008115159050919050565b6000819050919050565b6000819050610c2282610dd3565b919050565b60008160000b9050919050565b6000819050919050565b600060ff82169050919050565b6000610c5682610c14565b9050919050565b60005b83811015610c7b578082015181840152602081019050610c60565b83811115610c8a576000848401525b50505050565b6000610c9b82610c34565b91506000821415610caf57610cae610d35565b5b600182039050919050565b60006002820490506001821680610cd257607f821691505b60208210811415610ce657610ce5610d93565b5b50919050565b6000610cf782610c34565b91507fffffffffffffffffffffffffffffffffffffffffffffffffffffffffffffffff821415610d2a57610d29610d35565b5b600182019050919050565b7f4e487b7100000000000000000000000000000000000000000000000000000000600052601160045260246000fd5b7f4e487b7100000000000000000000000000000000000000000000000000000000600052602160045260246000fd5b7f4e487b7100000000000000000000000000000000000000000000000000000000600052602260045260246000fd5b6000601f19601f8301169050919050565b60048110610de457610de3610d64565b5b50565b610df081610bfe565b8114610dfb57600080fd5b50565b610e0781610c0a565b8114610e1257600080fd5b5056fea2646970667358221220668f17c3ec14f4eac605faa10631bada433b8244d8e97fe4834a1d8f942c906364736f6c63430008040033",
  "immutableReferences": {},
  "source": "pragma solidity ^0.8.4;\r\n\r\ncontract OracleInterface {\r\n    mapping(bytes32 => uint) matchIdToIndex;\r\n    Match[] matches;\r\n\r\n    //defines a match along with its outcome\r\n    struct Match {\r\n        bytes32 id;\r\n        string name;\r\n        string participants;\r\n        uint8 participantCount;\r\n        uint date;\r\n        MatchOutcome outcome;\r\n        int8 winner;\r\n    }\r\n\r\n    enum MatchOutcome {\r\n        Pending, //match has not been fought to decision\r\n        Underway, //match has started & is underway\r\n        Draw, //anything other than a clear winner (e.g. cancelled)\r\n        Decided //index of participant who is the winner\r\n    }\r\n\r\n    /// @notice returns the array index of the match with the given id\r\n    /// @dev if the match id is invalid, then the return value will be incorrect and may cause error; you must call matchExists(_matchId) first!\r\n    /// @param _matchId the match id to get\r\n    /// @return an array index\r\n    function _getMatchIndex(bytes32 _matchId) private view returns (uint) {\r\n        return matchIdToIndex[_matchId] - 1;\r\n    }\r\n\r\n    /// @notice gets the unique ids of all pending matches, in reverse chronological order\r\n    /// @return an array of unique match ids\r\n    function getPendingMatches() public view returns (bytes32[] memory) {\r\n        uint count = 0;\r\n\r\n        //get count of pending matches\r\n        for (uint i = 0; i < matches.length; i++) {\r\n            if (matches[i].outcome == MatchOutcome.Pending) count++;\r\n        }\r\n\r\n        //collect up all the pending matches\r\n        bytes32[] memory output = new bytes32[](count);\r\n\r\n        if (count > 0) {\r\n            uint index = 0;\r\n            for (uint n = matches.length; n > 0; n--) {\r\n                if (matches[n - 1].outcome == MatchOutcome.Pending)\r\n                    output[index++] = matches[n - 1].id;\r\n            }\r\n        }\r\n\r\n        return output;\r\n    }\r\n\r\n    /// @notice gets the unique ids of matches, pending and decided, in reverse chronological order\r\n    /// @return an array of unique match ids\r\n    function getAllMatches() public view returns (bytes32[] memory) {\r\n        bytes32[] memory output = new bytes32[](matches.length);\r\n\r\n        //get all ids\r\n        if (matches.length > 0) {\r\n            uint index = 0;\r\n            for (uint n = matches.length; n > 0; n--) {\r\n                output[index++] = matches[n - 1].id;\r\n            }\r\n        }\r\n\r\n        return output;\r\n    }\r\n\r\n    /// @notice determines whether a match exists with the given id\r\n    /// @param _matchId the match id to test\r\n    /// @return true if match exists and id is valid\r\n    function matchExists(bytes32 _matchId) public view returns (bool) {\r\n        if (matches.length == 0) return false;\r\n        uint index = matchIdToIndex[_matchId];\r\n        return (index > 0);\r\n    }\r\n\r\n    /// @notice gets the specified match\r\n    /// @param _matchId the unique id of the desired match\r\n    /// @return id : The match data of the specified match\r\n    function getMatch(\r\n        bytes32 _matchId\r\n    )\r\n        public\r\n        view\r\n        returns (\r\n            bytes32 id,\r\n            string memory name,\r\n            string memory participants,\r\n            uint8 participantCount,\r\n            uint date,\r\n            MatchOutcome outcome,\r\n            int8 winner\r\n        )\r\n    {\r\n        //get the match\r\n        if (matchExists(_matchId)) {\r\n            Match storage theMatch = matches[_getMatchIndex(_matchId)];\r\n            return (\r\n                theMatch.id,\r\n                theMatch.name,\r\n                theMatch.participants,\r\n                theMatch.participantCount,\r\n                theMatch.date,\r\n                theMatch.outcome,\r\n                theMatch.winner\r\n            );\r\n        } else {\r\n            return (_matchId, \"\", \"\", 0, 0, MatchOutcome.Pending, -1);\r\n        }\r\n    }\r\n\r\n    /// @notice gets the most recent match or pending match\r\n    /// @param _pending if true, will return only the most recent pending match; otherwise, returns the most recent match either pending or completed\r\n    /// @return id : The match data of the most recent match\r\n    function getMostRecentMatch(\r\n        bool _pending\r\n    )\r\n        public\r\n        view\r\n        returns (\r\n            bytes32 id,\r\n            string memory name,\r\n            string memory participants,\r\n            uint8 participantCount,\r\n            uint date,\r\n            MatchOutcome outcome,\r\n            int8 winner\r\n        )\r\n    {\r\n        bytes32 matchId = 0;\r\n        bytes32[] memory ids;\r\n\r\n        if (_pending) {\r\n            ids = getPendingMatches();\r\n        } else {\r\n            ids = getAllMatches();\r\n        }\r\n        if (ids.length > 0) {\r\n            matchId = ids[0];\r\n        }\r\n\r\n        //by default, return a null match\r\n        return getMatch(matchId);\r\n    }\r\n}\r\n",
  "sourcePath": "C:\\Users\\USER\\oracle-example\\client\\contracts\\OracleInterface.sol",
  "compiler": {
    "name": "solc",
    "version": "0.8.4+commit.c7e474f2.Emscripten.clang"
  },
  "schemaVersion": "3.4.13",
  "updatedAt": "2023-04-27T05:26:41.817Z",
  "devdoc": {
    "kind": "dev",
    "methods": {
      "getAllMatches()": {
        "returns": {
          "_0": "an array of unique match ids"
        }
      },
      "getMatch(bytes32)": {
        "params": {
          "_matchId": "the unique id of the desired match"
        },
        "returns": {
          "id": ": The match data of the specified match"
        }
      },
      "getMostRecentMatch(bool)": {
        "params": {
          "_pending": "if true, will return only the most recent pending match; otherwise, returns the most recent match either pending or completed"
        },
        "returns": {
          "id": ": The match data of the most recent match"
        }
      },
      "getPendingMatches()": {
        "returns": {
          "_0": "an array of unique match ids"
        }
      },
      "matchExists(bytes32)": {
        "params": {
          "_matchId": "the match id to test"
        },
        "returns": {
          "_0": "true if match exists and id is valid"
        }
      }
    },
    "version": 1
  },
  "userdoc": {
    "kind": "user",
    "methods": {
      "getAllMatches()": {
        "notice": "gets the unique ids of matches, pending and decided, in reverse chronological order"
      },
      "getMatch(bytes32)": {
        "notice": "gets the specified match"
      },
      "getMostRecentMatch(bool)": {
        "notice": "gets the most recent match or pending match"
      },
      "getPendingMatches()": {
        "notice": "gets the unique ids of all pending matches, in reverse chronological order"
      },
      "matchExists(bytes32)": {
        "notice": "determines whether a match exists with the given id"
      }
    },
    "version": 1
  }
}