{
  "contractName": "BoxingOracle",
  "abi": [
    {
      "anonymous": false,
      "inputs": [
        {
          "indexed": true,
          "internalType": "address",
          "name": "previousOwner",
          "type": "address"
        },
        {
          "indexed": true,
          "internalType": "address",
          "name": "newOwner",
          "type": "address"
        }
      ],
      "name": "OwnershipTransferred",
      "type": "event"
    },
    {
      "inputs": [],
      "name": "owner",
      "outputs": [
        {
          "internalType": "address",
          "name": "",
          "type": "address"
        }
      ],
      "stateMutability": "view",
      "type": "function",
      "constant": true
    },
    {
      "inputs": [
        {
          "internalType": "address",
          "name": "newOwner",
          "type": "address"
        }
      ],
      "name": "transferOwnership",
      "outputs": [],
      "stateMutability": "nonpayable",
      "type": "function"
    },
    {
      "inputs": [
        {
          "internalType": "bytes32",
          "name": "_matchId",
          "type": "bytes32"
        }
      ],
      "name": "matchExists",
      "outputs": [
        {
          "internalType": "bool",
          "name": "",
          "type": "bool"
        }
      ],
      "stateMutability": "view",
      "type": "function",
      "constant": true
    },
    {
      "inputs": [
        {
          "internalType": "string",
          "name": "_name",
          "type": "string"
        },
        {
          "internalType": "string",
          "name": "_participants",
          "type": "string"
        },
        {
          "internalType": "uint8",
          "name": "_participantCount",
          "type": "uint8"
        },
        {
          "internalType": "uint256",
          "name": "_date",
          "type": "uint256"
        }
      ],
      "name": "addMatch",
      "outputs": [
        {
          "internalType": "bytes32",
          "name": "",
          "type": "bytes32"
        }
      ],
      "stateMutability": "nonpayable",
      "type": "function"
    },
    {
      "inputs": [
        {
          "internalType": "bytes32",
          "name": "_matchId",
          "type": "bytes32"
        },
        {
          "internalType": "enum BoxingOracle.MatchOutcome",
          "name": "_outcome",
          "type": "uint8"
        },
        {
          "internalType": "int8",
          "name": "_winner",
          "type": "int8"
        }
      ],
      "name": "declareOutcome",
      "outputs": [],
      "stateMutability": "nonpayable",
      "type": "function"
    },
    {
      "inputs": [],
      "name": "getPendingMatches",
      "outputs": [
        {
          "internalType": "bytes32[]",
          "name": "",
          "type": "bytes32[]"
        }
      ],
      "stateMutability": "view",
      "type": "function",
      "constant": true
    },
    {
      "inputs": [],
      "name": "getAllMatches",
      "outputs": [
        {
          "internalType": "bytes32[]",
          "name": "",
          "type": "bytes32[]"
        }
      ],
      "stateMutability": "view",
      "type": "function",
      "constant": true
    },
    {
      "inputs": [
        {
          "internalType": "bytes32",
          "name": "_matchId",
          "type": "bytes32"
        }
      ],
      "name": "getMatch",
      "outputs": [
        {
          "internalType": "bytes32",
          "name": "id",
          "type": "bytes32"
        },
        {
          "internalType": "string",
          "name": "name",
          "type": "string"
        },
        {
          "internalType": "string",
          "name": "participants",
          "type": "string"
        },
        {
          "internalType": "uint8",
          "name": "participantCount",
          "type": "uint8"
        },
        {
          "internalType": "uint256",
          "name": "date",
          "type": "uint256"
        },
        {
          "internalType": "enum BoxingOracle.MatchOutcome",
          "name": "outcome",
          "type": "uint8"
        },
        {
          "internalType": "int8",
          "name": "winner",
          "type": "int8"
        }
      ],
      "stateMutability": "view",
      "type": "function",
      "constant": true
    },
    {
      "inputs": [
        {
          "internalType": "bool",
          "name": "_pending",
          "type": "bool"
        }
      ],
      "name": "getMostRecentMatch",
      "outputs": [
        {
          "internalType": "bytes32",
          "name": "id",
          "type": "bytes32"
        },
        {
          "internalType": "string",
          "name": "name",
          "type": "string"
        },
        {
          "internalType": "string",
          "name": "participants",
          "type": "string"
        },
        {
          "internalType": "uint8",
          "name": "participantCount",
          "type": "uint8"
        },
        {
          "internalType": "uint256",
          "name": "date",
          "type": "uint256"
        },
        {
          "internalType": "enum BoxingOracle.MatchOutcome",
          "name": "outcome",
          "type": "uint8"
        },
        {
          "internalType": "int8",
          "name": "winner",
          "type": "int8"
        }
      ],
      "stateMutability": "view",
      "type": "function",
      "constant": true
    },
    {
      "inputs": [],
      "name": "testConnection",
      "outputs": [
        {
          "internalType": "bool",
          "name": "",
          "type": "bool"
        }
      ],
      "stateMutability": "pure",
      "type": "function",
      "constant": true
    },
    {
      "inputs": [],
      "name": "getAddress",
      "outputs": [
        {
          "internalType": "address",
          "name": "",
          "type": "address"
        }
      ],
      "stateMutability": "view",
      "type": "function",
      "constant": true
    },
    {
      "inputs": [],
      "name": "addTestData",
      "outputs": [],
      "stateMutability": "nonpayable",
      "type": "function"
    }
  ],
  "bytecode": "0x608060405234801561001057600080fd5b50336000806101000a81548173ffffffffffffffffffffffffffffffffffffffff021916908373ffffffffffffffffffffffffffffffffffffffff160217905550612a82806100606000396000f3fe608060405234801561001057600080fd5b50600436106100b45760003560e01c8063a212b45411610071578063a212b4541461017d578063a934524014610187578063bb2b0f58146101b7578063c17c5a45146101ed578063f2fde38b1461020b578063fcc6077d14610227576100b4565b80633412a15c146100b957806338cc4831146100d75780635f29d4b1146100f55780637898d334146101135780638da5cb5b1461012f578063a1d2d3141461014d575b600080fd5b6100c161025d565b6040516100ce91906123b1565b60405180910390f35b6100df610266565b6040516100ec9190612374565b60405180910390f35b6100fd61026e565b60405161010a919061238f565b60405180910390f35b61012d600480360381019061012891906120d3565b6105a9565b005b61013761080a565b6040516101449190612374565b60405180910390f35b61016760048036038101906101629190612122565b61082e565b60405161017491906123cc565b60405180910390f35b610185610a7c565b005b6101a1600480360381019061019c91906120aa565b611289565b6040516101ae91906123b1565b60405180910390f35b6101d160048036038101906101cc9190612081565b6112c6565b6040516101e497969594939291906123e7565b60405180910390f35b6101f561136e565b604051610202919061238f565b60405180910390f35b61022560048036038101906102209190612058565b6114d0565b005b610241600480360381019061023c91906120aa565b61161f565b60405161025497969594939291906123e7565b60405180910390f35b60006001905090565b600030905090565b60606000805b60018054905081101561037457600060038111156102bb577f4e487b7100000000000000000000000000000000000000000000000000000000600052602160045260246000fd5b600182815481106102f5577f4e487b7100000000000000000000000000000000000000000000000000000000600052603260045260246000fd5b906000526020600020906006020160050160009054906101000a900460ff16600381111561034c577f4e487b7100000000000000000000000000000000000000000000000000000000600052602160045260246000fd5b141561036157818061035d906127ff565b9250505b808061036c906127ff565b915050610274565b5060008167ffffffffffffffff8111156103b7577f4e487b7100000000000000000000000000000000000000000000000000000000600052604160045260246000fd5b6040519080825280602002602001820160405280156103e55781602001602082028036833780820191505090505b50905060008211156105a15760008060018054905090505b600081111561059e5760006003811115610440577f4e487b7100000000000000000000000000000000000000000000000000000000600052602160045260246000fd5b6001808361044e91906125fe565b81548110610485577f4e487b7100000000000000000000000000000000000000000000000000000000600052603260045260246000fd5b906000526020600020906006020160050160009054906101000a900460ff1660038111156104dc577f4e487b7100000000000000000000000000000000000000000000000000000000600052602160045260246000fd5b141561058b57600180826104f091906125fe565b81548110610527577f4e487b7100000000000000000000000000000000000000000000000000000000600052603260045260246000fd5b906000526020600020906006020160000154838380610545906127ff565b94508151811061057e577f4e487b7100000000000000000000000000000000000000000000000000000000600052603260045260246000fd5b6020026020010181815250505b808061059690612747565b9150506103fd565b50505b809250505090565b60008054906101000a900473ffffffffffffffffffffffffffffffffffffffff1673ffffffffffffffffffffffffffffffffffffffff163373ffffffffffffffffffffffffffffffffffffffff161461060157600080fd5b61060a83611289565b61061357600080fd5b600061061e84611869565b905060006001828154811061065c577f4e487b7100000000000000000000000000000000000000000000000000000000600052603260045260246000fd5b906000526020600020906006020190506003808111156106a5577f4e487b7100000000000000000000000000000000000000000000000000000000600052602160045260246000fd5b8460038111156106de577f4e487b7100000000000000000000000000000000000000000000000000000000600052602160045260246000fd5b14156107185760008360000b1215801561070e57508260ff168160030160009054906101000a900460ff1660ff16115b61071757600080fd5b5b838160050160006101000a81548160ff02191690836003811115610765577f4e487b7100000000000000000000000000000000000000000000000000000000600052602160045260246000fd5b02179055506003808111156107a3577f4e487b7100000000000000000000000000000000000000000000000000000000600052602160045260246000fd5b8460038111156107dc577f4e487b7100000000000000000000000000000000000000000000000000000000600052602160045260246000fd5b141561080357828160050160016101000a81548160ff021916908360000b60ff1602179055505b5050505050565b60008054906101000a900473ffffffffffffffffffffffffffffffffffffffff1681565b60008060009054906101000a900473ffffffffffffffffffffffffffffffffffffffff1673ffffffffffffffffffffffffffffffffffffffff163373ffffffffffffffffffffffffffffffffffffffff161461088957600080fd5b60008584846040516020016108a09392919061233b565b6040516020818303038152906040528051906020012090506108c181611289565b156108cb57600080fd5b60016040518060e001604052808381526020018881526020018781526020018660ff16815260200185815260200160006003811115610933577f4e487b7100000000000000000000000000000000000000000000000000000000600052602160045260246000fd5b81526020016000800b815250908060018154018082558091505060019003906000526020600020906006020160009091909190915060008201518160000155602082015181600101908051906020019061098e929190611e97565b5060408201518160020190805190602001906109ab929190611e97565b5060608201518160030160006101000a81548160ff021916908360ff1602179055506080820151816004015560a08201518160050160006101000a81548160ff02191690836003811115610a28577f4e487b7100000000000000000000000000000000000000000000000000000000600052602160045260246000fd5b021790555060c08201518160050160016101000a81548160ff021916908360000b60ff1602179055505050600180549050600260008381526020019081526020016000208190555080915050949350505050565b60008054906101000a900473ffffffffffffffffffffffffffffffffffffffff1673ffffffffffffffffffffffffffffffffffffffff163373ffffffffffffffffffffffffffffffffffffffff1614610ad457600080fd5b610bae6040518060400160405280601781526020017f506163717569616f2076732e204d6179576561746865720000000000000000008152506040518060400160405280601381526020017f506163717569616f7c4d617977656174686572000000000000000000000000008152506002610ba96040518061010001604052806107e261ffff168152602001600860ff168152602001600d60ff168152602001600060ff168152602001600060ff168152602001600060ff168152602001600060ff168152602001600060ff16815250611892565b61082e565b50610c896040518060400160405280601781526020017f4d6163717569616f2076732e20506179776561746865720000000000000000008152506040518060400160405280601381526020017f4d6163717569616f7c50617977656174686572000000000000000000000000008152506002610c846040518061010001604052806107e261ffff168152602001600860ff168152602001600f60ff168152602001600060ff168152602001600060ff168152602001600060ff168152602001600060ff168152602001600060ff16815250611892565b61082e565b50610d646040518060400160405280601881526020017f506163776561746865722076732e204d616361727468757200000000000000008152506040518060400160405280601481526020017f506163776561746865727c4d61636172746875720000000000000000000000008152506002610d5f6040518061010001604052806107e261ffff168152602001600960ff168152602001600360ff168152602001600060ff168152602001600060ff168152602001600060ff168152602001600060ff168152602001600060ff16815250611892565b61082e565b50610e3f6040518060400160405280601481526020017f4d61636172746875722076732e205472756d616e0000000000000000000000008152506040518060400160405280601081526020017f4d61636172746875727c5472756d616e000000000000000000000000000000008152506002610e3a6040518061010001604052806107e261ffff168152602001600960ff168152602001600360ff168152602001600060ff168152602001600060ff168152602001600060ff168152602001600060ff168152602001600060ff16815250611892565b61082e565b50610f1a6040518060400160405280601481526020017f4d6163617175652076732e2050726567756e746f0000000000000000000000008152506040518060400160405280601081526020017f4d6163617175657c50726567756e746f000000000000000000000000000000008152506002610f156040518061010001604052806107e261ffff168152602001600960ff168152602001601560ff168152602001600060ff168152602001600060ff168152602001600060ff168152602001600060ff168152602001600060ff16815250611892565b61082e565b50610ff56040518060400160405280601781526020017f46617273776f7274682076732e205765726e7374726f6d0000000000000000008152506040518060400160405280601381526020017f46617273776f7274687c5765726e7374726f6d000000000000000000000000008152506002610ff06040518061010001604052806107e261ffff168152602001600960ff168152602001601d60ff168152602001600060ff168152602001600060ff168152602001600060ff168152602001600060ff168152602001600060ff16815250611892565b61082e565b506110d06040518060400160405280601581526020017f466f7274696e627261732076732e2048616d6c657400000000000000000000008152506040518060400160405280601181526020017f466f7274696e627261737c48616d6c657400000000000000000000000000000081525060026110cb6040518061010001604052806107e261ffff168152602001600a60ff168152602001600a60ff168152602001600060ff168152602001600060ff168152602001600060ff168152602001600060ff168152602001600060ff16815250611892565b61082e565b506111ab6040518060400160405280601581526020017f466f6f6c69636c652076732e2050726574656e646f00000000000000000000008152506040518060400160405280601181526020017f466f6f6c69636c657c50726574656e646f00000000000000000000000000000081525060026111a66040518061010001604052806107e261ffff168152602001600b60ff168152602001600b60ff168152602001600060ff168152602001600060ff168152602001600060ff168152602001600060ff168152602001600060ff16815250611892565b61082e565b506112866040518060400160405280601581526020017f506172746869616e2076732e20536379746869616e00000000000000000000008152506040518060400160405280601181526020017f506172746869616e7c536379746869616e00000000000000000000000000000081525060026112816040518061010001604052806107e261ffff168152602001600b60ff168152602001600c60ff168152602001600060ff168152602001600060ff168152602001600060ff168152602001600060ff168152602001600060ff16815250611892565b61082e565b50565b60008060018054905014156112a157600090506112c1565b600060026000848152602001908152602001600020549050600081119150505b919050565b600060608060008060008060008060001b9050606089156112f0576112e961026e565b90506112fb565b6112f861136e565b90505b60008151111561134a578060008151811061133f577f4e487b7100000000000000000000000000000000000000000000000000000000600052603260045260246000fd5b602002602001015191505b6113538261161f565b98509850985098509850985098505050919395979092949650565b6060600060018054905067ffffffffffffffff8111156113b7577f4e487b7100000000000000000000000000000000000000000000000000000000600052604160045260246000fd5b6040519080825280602002602001820160405280156113e55781602001602082028036833780820191505090505b509050600060018054905011156114c95760008060018054905090505b60008111156114c6576001808261141991906125fe565b81548110611450577f4e487b7100000000000000000000000000000000000000000000000000000000600052603260045260246000fd5b90600052602060002090600602016000015483838061146e906127ff565b9450815181106114a7577f4e487b7100000000000000000000000000000000000000000000000000000000600052603260045260246000fd5b60200260200101818152505080806114be90612747565b915050611402565b50505b8091505090565b60008054906101000a900473ffffffffffffffffffffffffffffffffffffffff1673ffffffffffffffffffffffffffffffffffffffff163373ffffffffffffffffffffffffffffffffffffffff161461152857600080fd5b600073ffffffffffffffffffffffffffffffffffffffff168173ffffffffffffffffffffffffffffffffffffffff16141561156257600080fd5b8073ffffffffffffffffffffffffffffffffffffffff1660008054906101000a900473ffffffffffffffffffffffffffffffffffffffff1673ffffffffffffffffffffffffffffffffffffffff167f8be0079c531659141344cd1fd0a4f28419497f9722a3daafe3b4186f6b6457e060405160405180910390a3806000806101000a81548173ffffffffffffffffffffffffffffffffffffffff021916908373ffffffffffffffffffffffffffffffffffffffff16021790555050565b600060608060008060008061163388611289565b1561180057600060016116458a611869565b8154811061167c577f4e487b7100000000000000000000000000000000000000000000000000000000600052603260045260246000fd5b90600052602060002090600602019050806000015481600101826002018360030160009054906101000a900460ff1684600401548560050160009054906101000a900460ff168660050160019054906101000a900460000b8580546116e090612771565b80601f016020809104026020016040519081016040528092919081815260200182805461170c90612771565b80156117595780601f1061172e57610100808354040283529160200191611759565b820191906000526020600020905b81548152906001019060200180831161173c57829003601f168201915b5050505050955084805461176c90612771565b80601f016020809104026020016040519081016040528092919081815260200182805461179890612771565b80156117e55780601f106117ba576101008083540402835291602001916117e5565b820191906000526020600020905b8154815290600101906020018083116117c857829003601f168201915b5050505050945097509750975097509750975097505061185e565b8760008060007fffffffffffffffffffffffffffffffffffffffffffffffffffffffffffffffff6040518060200160405280600081525093929190604051806020016040528060008152509392919096509650965096509650965096505b919395979092949650565b60006001600260008481526020019081526020016000205461188b91906125fe565b9050919050565b6000806107b290505b826000015161ffff168161ffff1610156118fa576118b881611e28565b156118d4576301e28500826118cd919061251a565b91506118e7565b6301e13380826118e4919061251a565b91505b80806118f2906127d4565b91505061189b565b611902611f1d565b601f816000600c811061193e577f4e487b7100000000000000000000000000000000000000000000000000000000600052603260045260246000fd5b602002019060ff16908160ff168152505061195c8460000151611e28565b156119b357601d816001600c811061199d577f4e487b7100000000000000000000000000000000000000000000000000000000600052603260045260246000fd5b602002019060ff16908160ff1681525050611a01565b601c816001600c81106119ef577f4e487b7100000000000000000000000000000000000000000000000000000000600052603260045260246000fd5b602002019060ff16908160ff16815250505b601f816002600c8110611a3d577f4e487b7100000000000000000000000000000000000000000000000000000000600052603260045260246000fd5b602002019060ff16908160ff1681525050601e816003600c8110611a8a577f4e487b7100000000000000000000000000000000000000000000000000000000600052603260045260246000fd5b602002019060ff16908160ff1681525050601f816004600c8110611ad7577f4e487b7100000000000000000000000000000000000000000000000000000000600052603260045260246000fd5b602002019060ff16908160ff1681525050601e816005600c8110611b24577f4e487b7100000000000000000000000000000000000000000000000000000000600052603260045260246000fd5b602002019060ff16908160ff1681525050601f816006600c8110611b71577f4e487b7100000000000000000000000000000000000000000000000000000000600052603260045260246000fd5b602002019060ff16908160ff1681525050601f816007600c8110611bbe577f4e487b7100000000000000000000000000000000000000000000000000000000600052603260045260246000fd5b602002019060ff16908160ff1681525050601e816008600c8110611c0b577f4e487b7100000000000000000000000000000000000000000000000000000000600052603260045260246000fd5b602002019060ff16908160ff1681525050601f816009600c8110611c58577f4e487b7100000000000000000000000000000000000000000000000000000000600052603260045260246000fd5b602002019060ff16908160ff1681525050601e81600a600c8110611ca5577f4e487b7100000000000000000000000000000000000000000000000000000000600052603260045260246000fd5b602002019060ff16908160ff1681525050601f81600b600c8110611cf2577f4e487b7100000000000000000000000000000000000000000000000000000000600052603260045260246000fd5b602002019060ff16908160ff1681525050600191505b836020015160ff168261ffff161015611d9a5780600183611d2991906125ca565b61ffff16600c8110611d64577f4e487b7100000000000000000000000000000000000000000000000000000000600052603260045260246000fd5b602002015160ff1662015180611d7a9190612570565b83611d85919061251a565b92508180611d92906127d4565b925050611d08565b60018460400151611dab9190612632565b60ff1662015180611dbc9190612570565b83611dc7919061251a565b9250836060015160ff16610e10611dde9190612570565b83611de9919061251a565b9250836080015160ff16603c611dff9190612570565b83611e0a919061251a565b92508360a0015160ff1683611e1f919061251a565b92505050919050565b600080600483611e389190612864565b61ffff1614611e4a5760009050611e92565b6000606483611e599190612864565b61ffff1614611e6b5760019050611e92565b600061019083611e7b9190612864565b61ffff1614611e8d5760009050611e92565b600190505b919050565b828054611ea390612771565b90600052602060002090601f016020900481019282611ec55760008555611f0c565b82601f10611ede57805160ff1916838001178555611f0c565b82800160010185558215611f0c579182015b82811115611f0b578251825591602001919060010190611ef0565b5b509050611f199190611f40565b5090565b604051806101800160405280600c90602082028036833780820191505090505090565b5b80821115611f59576000816000905550600101611f41565b5090565b6000611f70611f6b84612489565b612464565b905082815260208101848484011115611f8857600080fd5b611f93848285612705565b509392505050565b600081359050611faa816129b2565b92915050565b600081359050611fbf816129c9565b92915050565b600081359050611fd4816129e0565b92915050565b600081359050611fe9816129f7565b92915050565b600081359050611ffe81612a07565b92915050565b600082601f83011261201557600080fd5b8135612025848260208601611f5d565b91505092915050565b60008135905061203d81612a1e565b92915050565b60008135905061205281612a35565b92915050565b60006020828403121561206a57600080fd5b600061207884828501611f9b565b91505092915050565b60006020828403121561209357600080fd5b60006120a184828501611fb0565b91505092915050565b6000602082840312156120bc57600080fd5b60006120ca84828501611fc5565b91505092915050565b6000806000606084860312156120e857600080fd5b60006120f686828701611fc5565b935050602061210786828701611fda565b925050604061211886828701611fef565b9150509250925092565b6000806000806080858703121561213857600080fd5b600085013567ffffffffffffffff81111561215257600080fd5b61215e87828801612004565b945050602085013567ffffffffffffffff81111561217b57600080fd5b61218787828801612004565b935050604061219887828801612043565b92505060606121a98782880161202e565b91505092959194509250565b60006121c18383612249565b60208301905092915050565b6121d681612666565b82525050565b60006121e7826124ca565b6121f181856124ed565b93506121fc836124ba565b8060005b8381101561222d57815161221488826121b5565b975061221f836124e0565b925050600181019050612200565b5085935050505092915050565b61224381612678565b82525050565b61225281612684565b82525050565b61226181612684565b82525050565b612270816126f3565b82525050565b61227f816126a1565b82525050565b6000612290826124d5565b61229a81856124fe565b93506122aa818560208601612714565b6122b381612980565b840191505092915050565b60006122c9826124d5565b6122d3818561250f565b93506122e3818560208601612714565b80840191505092915050565b6122f8816126dc565b82525050565b61230f61230a826126dc565b612848565b82525050565b61231e816126e6565b82525050565b612335612330826126e6565b612852565b82525050565b600061234782866122be565b91506123538285612324565b60018201915061236382846122fe565b602082019150819050949350505050565b600060208201905061238960008301846121cd565b92915050565b600060208201905081810360008301526123a981846121dc565b905092915050565b60006020820190506123c6600083018461223a565b92915050565b60006020820190506123e16000830184612258565b92915050565b600060e0820190506123fc600083018a612258565b818103602083015261240e8189612285565b905081810360408301526124228188612285565b90506124316060830187612315565b61243e60808301866122ef565b61244b60a0830185612267565b61245860c0830184612276565b98975050505050505050565b600061246e61247f565b905061247a82826127a3565b919050565b6000604051905090565b600067ffffffffffffffff8211156124a4576124a3612951565b5b6124ad82612980565b9050602081019050919050565b6000819050602082019050919050565b600081519050919050565b600081519050919050565b6000602082019050919050565b600082825260208201905092915050565b600082825260208201905092915050565b600081905092915050565b6000612525826126dc565b9150612530836126dc565b9250827fffffffffffffffffffffffffffffffffffffffffffffffffffffffffffffffff0382111561256557612564612895565b5b828201905092915050565b600061257b826126dc565b9150612586836126dc565b9250817fffffffffffffffffffffffffffffffffffffffffffffffffffffffffffffffff04831182151516156125bf576125be612895565b5b828202905092915050565b60006125d5826126ae565b91506125e0836126ae565b9250828210156125f3576125f2612895565b5b828203905092915050565b6000612609826126dc565b9150612614836126dc565b92508282101561262757612626612895565b5b828203905092915050565b600061263d826126e6565b9150612648836126e6565b92508282101561265b5761265a612895565b5b828203905092915050565b6000612671826126bc565b9050919050565b60008115159050919050565b6000819050919050565b600081905061269c8261299e565b919050565b60008160000b9050919050565b600061ffff82169050919050565b600073ffffffffffffffffffffffffffffffffffffffff82169050919050565b6000819050919050565b600060ff82169050919050565b60006126fe8261268e565b9050919050565b82818337600083830152505050565b60005b83811015612732578082015181840152602081019050612717565b83811115612741576000848401525b50505050565b6000612752826126dc565b9150600082141561276657612765612895565b5b600182039050919050565b6000600282049050600182168061278957607f821691505b6020821081141561279d5761279c612922565b5b50919050565b6127ac82612980565b810181811067ffffffffffffffff821117156127cb576127ca612951565b5b80604052505050565b60006127df826126ae565b915061ffff8214156127f4576127f3612895565b5b600182019050919050565b600061280a826126dc565b91507fffffffffffffffffffffffffffffffffffffffffffffffffffffffffffffffff82141561283d5761283c612895565b5b600182019050919050565b6000819050919050565b600061285d82612991565b9050919050565b600061286f826126ae565b915061287a836126ae565b92508261288a576128896128c4565b5b828206905092915050565b7f4e487b7100000000000000000000000000000000000000000000000000000000600052601160045260246000fd5b7f4e487b7100000000000000000000000000000000000000000000000000000000600052601260045260246000fd5b7f4e487b7100000000000000000000000000000000000000000000000000000000600052602160045260246000fd5b7f4e487b7100000000000000000000000000000000000000000000000000000000600052602260045260246000fd5b7f4e487b7100000000000000000000000000000000000000000000000000000000600052604160045260246000fd5b6000601f19601f8301169050919050565b60008160f81b9050919050565b600481106129af576129ae6128f3565b5b50565b6129bb81612666565b81146129c657600080fd5b50565b6129d281612678565b81146129dd57600080fd5b50565b6129e981612684565b81146129f457600080fd5b50565b60048110612a0457600080fd5b50565b612a10816126a1565b8114612a1b57600080fd5b50565b612a27816126dc565b8114612a3257600080fd5b50565b612a3e816126e6565b8114612a4957600080fd5b5056fea2646970667358221220b0f829e97b8057213c7da57ef6b26998621b0eb08a487ba21d85baec93dd5d6364736f6c63430008040033",
  "immutableReferences": {},
  "source": "// SPDX-License-Identifier: MIT\r\npragma solidity ^0.8.4;\r\n\r\nimport \"./Ownable.sol\";\r\nimport \"./DateLib.sol\";\r\n\r\n/*\r\nTEST: \r\n- testConnection \r\n- getAddress\r\n- matchExists(0) \r\n- matchExists(1)\r\n- declareOutcome(0, 2)\r\n- getPendingMatches()\r\n- getAllMatches()\r\n- getMatch(0)\r\n- getMostRecentMatch(true)\r\n- addTestData()\r\n- matchExists(0) \r\n- matchExists(1)\r\n- declareOutcome(0, 2)\r\n- getPendingMatches()               \r\n- getAllMatches()                   \r\n- getMatch(0)\r\n- getMostRecentMatch(true)\r\n- getMostRecentMatch(false) \r\n- getMatch(0x...)                   \r\n- declareOutcome(0x..., 2)              \r\n- getMostRecentMatch(true)\r\n- getMostRecentMatch(false)\r\n- getMatch(0x...)              \r\n- add duplicate match      \r\n*/\r\n\r\n/// @title BoxingOracle\r\n/// @author John R. Kosinski\r\n/// @notice Collects and provides information on boxing matches and their outcomes\r\ncontract BoxingOracle is Ownable {\r\n    Match[] matches;\r\n    mapping(bytes32 => uint) matchIdToIndex;\r\n\r\n    using DateLib for DateLib.DateTime;\r\n\r\n    //defines a match along with its outcome\r\n    struct Match {\r\n        bytes32 id;\r\n        string name;\r\n        string participants;\r\n        uint8 participantCount;\r\n        uint date;\r\n        MatchOutcome outcome;\r\n        int8 winner;\r\n    }\r\n\r\n    //possible match outcomes\r\n    enum MatchOutcome {\r\n        Pending, //match has not been fought to decision\r\n        Underway, //match has started & is underway\r\n        Draw, //anything other than a clear winner (e.g. cancelled)\r\n        Decided //index of participant who is the winner\r\n    }\r\n\r\n    /// @notice returns the array index of the match with the given id\r\n    /// @dev if the match id is invalid, then the return value will be incorrect and may cause error; you must call matchExists(_matchId) first!\r\n    /// @param _matchId the match id to get\r\n    /// @return an array index\r\n    function _getMatchIndex(bytes32 _matchId) private view returns (uint) {\r\n        return matchIdToIndex[_matchId] - 1;\r\n    }\r\n\r\n    /// @notice determines whether a match exists with the given id\r\n    /// @param _matchId the match id to test\r\n    /// @return true if match exists and id is valid\r\n    function matchExists(bytes32 _matchId) public view returns (bool) {\r\n        if (matches.length == 0) return false;\r\n        uint index = matchIdToIndex[_matchId];\r\n        return (index > 0);\r\n    }\r\n\r\n    /// @notice puts a new pending match into the blockchain\r\n    /// @param _name descriptive name for the match (e.g. Pac vs. Mayweather 2016)\r\n    /// @param _participants |-delimited string of participants names (e.g. \"Manny Pac|Floyd May\")\r\n    /// @param _participantCount number of participants\r\n    /// @param _date date set for the match\r\n    /// @return the unique id of the newly created match\r\n    function addMatch(\r\n        string memory _name,\r\n        string memory _participants,\r\n        uint8 _participantCount,\r\n        uint _date\r\n    ) public onlyOwner returns (bytes32) {\r\n        //hash the crucial info to get a unique id\r\n        bytes32 id = keccak256(\r\n            abi.encodePacked(_name, _participantCount, _date)\r\n        );\r\n\r\n        //require that the match be unique (not already added)\r\n        require(!matchExists(id));\r\n\r\n        //add the match\r\n        matches.push(\r\n            Match(\r\n                id,\r\n                _name,\r\n                _participants,\r\n                _participantCount,\r\n                _date,\r\n                MatchOutcome.Pending,\r\n                0\r\n            )\r\n        );\r\n        matchIdToIndex[id] = matches.length;\r\n\r\n        //return the unique id of the new match\r\n        return id;\r\n    }\r\n\r\n    /// @notice sets the outcome of a predefined match, permanently on the blockchain\r\n    /// @param _matchId unique id of the match to modify\r\n    /// @param _outcome outcome of the match\r\n    function declareOutcome(\r\n        bytes32 _matchId,\r\n        MatchOutcome _outcome,\r\n        int8 _winner\r\n    ) external onlyOwner {\r\n        //require that it exists\r\n        require(matchExists(_matchId));\r\n\r\n        //get the match\r\n        uint index = _getMatchIndex(_matchId);\r\n        Match storage theMatch = matches[index];\r\n\r\n        if (_outcome == MatchOutcome.Decided)\r\n            require(_winner >= 0 && theMatch.participantCount > uint8(_winner));\r\n\r\n        //set the outcome\r\n        theMatch.outcome = _outcome;\r\n\r\n        //set the winner (if there is one)\r\n        if (_outcome == MatchOutcome.Decided) theMatch.winner = _winner;\r\n    }\r\n\r\n    /// @notice gets the unique ids of all pending matches, in reverse chronological order\r\n    /// @return an array of unique match ids\r\n    function getPendingMatches() public view returns (bytes32[] memory) {\r\n        uint count = 0;\r\n\r\n        //get count of pending matches\r\n        for (uint i = 0; i < matches.length; i++) {\r\n            if (matches[i].outcome == MatchOutcome.Pending) count++;\r\n        }\r\n\r\n        //collect up all the pending matches\r\n        bytes32[] memory output = new bytes32[](count);\r\n\r\n        if (count > 0) {\r\n            uint index = 0;\r\n            for (uint n = matches.length; n > 0; n--) {\r\n                if (matches[n - 1].outcome == MatchOutcome.Pending)\r\n                    output[index++] = matches[n - 1].id;\r\n            }\r\n        }\r\n\r\n        return output;\r\n    }\r\n\r\n    /// @notice gets the unique ids of matches, pending and decided, in reverse chronological order\r\n    /// @return an array of unique match ids\r\n    function getAllMatches() public view returns (bytes32[] memory) {\r\n        bytes32[] memory output = new bytes32[](matches.length);\r\n\r\n        //get all ids\r\n        if (matches.length > 0) {\r\n            uint index = 0;\r\n            for (uint n = matches.length; n > 0; n--) {\r\n                output[index++] = matches[n - 1].id;\r\n            }\r\n        }\r\n\r\n        return output;\r\n    }\r\n\r\n    /// @notice gets the specified match\r\n    /// @param _matchId the unique id of the desired match\r\n    /// @return id : match data of the specified match\r\n    function getMatch(\r\n        bytes32 _matchId\r\n    )\r\n        public\r\n        view\r\n        returns (\r\n            bytes32 id,\r\n            string memory name,\r\n            string memory participants,\r\n            uint8 participantCount,\r\n            uint date,\r\n            MatchOutcome outcome,\r\n            int8 winner\r\n        )\r\n    {\r\n        //get the match\r\n        if (matchExists(_matchId)) {\r\n            Match storage theMatch = matches[_getMatchIndex(_matchId)];\r\n            return (\r\n                theMatch.id,\r\n                theMatch.name,\r\n                theMatch.participants,\r\n                theMatch.participantCount,\r\n                theMatch.date,\r\n                theMatch.outcome,\r\n                theMatch.winner\r\n            );\r\n        } else {\r\n            return (_matchId, \"\", \"\", 0, 0, MatchOutcome.Pending, -1);\r\n        }\r\n    }\r\n\r\n    /// @notice gets the most recent match or pending match\r\n    /// @param _pending if true, will return only the most recent pending match; otherwise, returns the most recent match either pending or completed\r\n    /// @return id : match data\r\n    function getMostRecentMatch(\r\n        bool _pending\r\n    )\r\n        public\r\n        view\r\n        returns (\r\n            bytes32 id,\r\n            string memory name,\r\n            string memory participants,\r\n            uint8 participantCount,\r\n            uint date,\r\n            MatchOutcome outcome,\r\n            int8 winner\r\n        )\r\n    {\r\n        bytes32 matchId = 0;\r\n        bytes32[] memory ids;\r\n\r\n        if (_pending) {\r\n            ids = getPendingMatches();\r\n        } else {\r\n            ids = getAllMatches();\r\n        }\r\n        if (ids.length > 0) {\r\n            matchId = ids[0];\r\n        }\r\n\r\n        //by default, return a null match\r\n        return getMatch(matchId);\r\n    }\r\n\r\n    /// @notice can be used by a client contract to ensure that they've connected to this contract interface successfully\r\n    /// @return true, unconditionally\r\n    function testConnection() public pure returns (bool) {\r\n        return true;\r\n    }\r\n\r\n    /// @notice gets the address of this contract\r\n    /// @return address\r\n    function getAddress() public view returns (address) {\r\n        return address(this);\r\n    }\r\n\r\n    /// @notice for testing\r\n    function addTestData() external onlyOwner {\r\n        addMatch(\r\n            \"Pacquiao vs. MayWeather\",\r\n            \"Pacquiao|Mayweather\",\r\n            2,\r\n            DateLib.DateTime(2018, 8, 13, 0, 0, 0, 0, 0).toUnixTimestamp()\r\n        );\r\n        addMatch(\r\n            \"Macquiao vs. Payweather\",\r\n            \"Macquiao|Payweather\",\r\n            2,\r\n            DateLib.DateTime(2018, 8, 15, 0, 0, 0, 0, 0).toUnixTimestamp()\r\n        );\r\n        addMatch(\r\n            \"Pacweather vs. Macarthur\",\r\n            \"Pacweather|Macarthur\",\r\n            2,\r\n            DateLib.DateTime(2018, 9, 3, 0, 0, 0, 0, 0).toUnixTimestamp()\r\n        );\r\n        addMatch(\r\n            \"Macarthur vs. Truman\",\r\n            \"Macarthur|Truman\",\r\n            2,\r\n            DateLib.DateTime(2018, 9, 3, 0, 0, 0, 0, 0).toUnixTimestamp()\r\n        );\r\n        addMatch(\r\n            \"Macaque vs. Pregunto\",\r\n            \"Macaque|Pregunto\",\r\n            2,\r\n            DateLib.DateTime(2018, 9, 21, 0, 0, 0, 0, 0).toUnixTimestamp()\r\n        );\r\n        addMatch(\r\n            \"Farsworth vs. Wernstrom\",\r\n            \"Farsworth|Wernstrom\",\r\n            2,\r\n            DateLib.DateTime(2018, 9, 29, 0, 0, 0, 0, 0).toUnixTimestamp()\r\n        );\r\n        addMatch(\r\n            \"Fortinbras vs. Hamlet\",\r\n            \"Fortinbras|Hamlet\",\r\n            2,\r\n            DateLib.DateTime(2018, 10, 10, 0, 0, 0, 0, 0).toUnixTimestamp()\r\n        );\r\n        addMatch(\r\n            \"Foolicle vs. Pretendo\",\r\n            \"Foolicle|Pretendo\",\r\n            2,\r\n            DateLib.DateTime(2018, 11, 11, 0, 0, 0, 0, 0).toUnixTimestamp()\r\n        );\r\n        addMatch(\r\n            \"Parthian vs. Scythian\",\r\n            \"Parthian|Scythian\",\r\n            2,\r\n            DateLib.DateTime(2018, 11, 12, 0, 0, 0, 0, 0).toUnixTimestamp()\r\n        );\r\n    }\r\n}\r\n",
  "sourcePath": "C:\\Users\\USER\\oracle-example\\oracle\\contracts\\BoxingOracle.sol",
  "compiler": {
    "name": "solc",
    "version": "0.8.4+commit.c7e474f2.Emscripten.clang"
  },
  "schemaVersion": "3.4.13",
  "updatedAt": "2023-04-29T14:08:23.314Z",
  "networkType": "ethereum",
  "devdoc": {
    "author": "John R. Kosinski",
    "kind": "dev",
    "methods": {
      "addMatch(string,string,uint8,uint256)": {
        "params": {
          "_date": "date set for the match",
          "_name": "descriptive name for the match (e.g. Pac vs. Mayweather 2016)",
          "_participantCount": "number of participants",
          "_participants": "|-delimited string of participants names (e.g. \"Manny Pac|Floyd May\")"
        },
        "returns": {
          "_0": "the unique id of the newly created match"
        }
      },
      "declareOutcome(bytes32,uint8,int8)": {
        "params": {
          "_matchId": "unique id of the match to modify",
          "_outcome": "outcome of the match"
        }
      },
      "getAddress()": {
        "returns": {
          "_0": "address"
        }
      },
      "getAllMatches()": {
        "returns": {
          "_0": "an array of unique match ids"
        }
      },
      "getMatch(bytes32)": {
        "params": {
          "_matchId": "the unique id of the desired match"
        },
        "returns": {
          "id": ": match data of the specified match"
        }
      },
      "getMostRecentMatch(bool)": {
        "params": {
          "_pending": "if true, will return only the most recent pending match; otherwise, returns the most recent match either pending or completed"
        },
        "returns": {
          "id": ": match data"
        }
      },
      "getPendingMatches()": {
        "returns": {
          "_0": "an array of unique match ids"
        }
      },
      "matchExists(bytes32)": {
        "params": {
          "_matchId": "the match id to test"
        },
        "returns": {
          "_0": "true if match exists and id is valid"
        }
      },
      "testConnection()": {
        "returns": {
          "_0": "true, unconditionally"
        }
      },
      "transferOwnership(address)": {
        "details": "Allows the current owner to transfer control of the contract to a newOwner.",
        "params": {
          "newOwner": "The address to transfer ownership to."
        }
      }
    },
    "title": "BoxingOracle",
    "version": 1
  },
  "userdoc": {
    "kind": "user",
    "methods": {
      "addMatch(string,string,uint8,uint256)": {
        "notice": "puts a new pending match into the blockchain"
      },
      "addTestData()": {
        "notice": "for testing"
      },
      "declareOutcome(bytes32,uint8,int8)": {
        "notice": "sets the outcome of a predefined match, permanently on the blockchain"
      },
      "getAddress()": {
        "notice": "gets the address of this contract"
      },
      "getAllMatches()": {
        "notice": "gets the unique ids of matches, pending and decided, in reverse chronological order"
      },
      "getMatch(bytes32)": {
        "notice": "gets the specified match"
      },
      "getMostRecentMatch(bool)": {
        "notice": "gets the most recent match or pending match"
      },
      "getPendingMatches()": {
        "notice": "gets the unique ids of all pending matches, in reverse chronological order"
      },
      "matchExists(bytes32)": {
        "notice": "determines whether a match exists with the given id"
      },
      "testConnection()": {
        "notice": "can be used by a client contract to ensure that they've connected to this contract interface successfully"
      }
    },
    "notice": "Collects and provides information on boxing matches and their outcomes",
    "version": 1
  }
}